:020000020000FC
:200000000040023408408C140800683A0000000000000000000000000000000000000000D8
:20000800DEFFED04DFC00015D8400215D8800315D8C00415D9000515D9400615D98007156A
:20001000D9C00815000B307ADA000915DA400A15DA800B15DAC00C15DB000D15DB400E15C4
:20001800DB800F15DBC01015D9401115EBFFFF04DBC012150009313A2880004C10000326FA
:200020002000022600800FC000000706DF401215E8BFFF17E93FFF0400801D001000021E21
:20002800EBFFFF04DBC01215D9401117DF401217DFC000172801707AD8400217D880031714
:20003000D8C00417D9000517D9400617D9800717D9C00817DA000917DA400A17DA800B17F2
:20003800DAC00C17DB000D17DB400E17DB800F17DBC01017DEC01304EF80083ADEFFF90429
:20004000DFC00615DF000515DF0005040001883A0005313AE0BFFE15E0BFFE17E0BFFB15BD
:20004800E03FFD1500800044E0BFFC15E0FFFB17E0BFFC171884703A1000142600800274CA
:20005000109FF604E0FFFD17180690FA10C5883A10C0001700800274109FF604E13FFD17FB
:20005800200890FA1105883A10800104108000171009883A183EE83A0001883A0005313A3C
:20006000E0BFFF15E0BFFF1700000706E0BFFC171085883AE0BFFC15E0BFFD1710800044CB
:20006800E0BFFD15003FE106E0BFFB15E0BFFB17103FDB1E0001883A0001883AE037883A9A
:20007000DFC00117DF000017DEC00204F800283ADEFFFB04DFC00415DF000315DF00030454
:20007800E13FFF1500BFFFC4E0BFFD15E03FFE15D0A6EA1710000726D0A6EA17E0FFFD17B1
:20008000E1BFFE17E17FFF171809883A103EE83A00000206003DA03A0005883AE037883A23
:20008800DFC00117DF000017DEC00204F800283A06C00374DED5CC1406800274D6B901143D
:2000900000800274109FDE1400C0027418E0361410C00326100000151080010410FFFD364C
:200098000090F6C000911080003FFF06DEFFC404DFC03B15DF003A15DF003A04E13FC817BF
:2000A000009228C001000274210E2A04009230C0E0BFC815E13FC81700925100009000047E
:2000A800E0BFC91500840404E0BFCA1500800074E0BFCB1500800274108E3404E0BFCC15F2
:2000B000E0FFCB1700800134109000041885883AE0FFCC1710C00035E0BFC91710800017CA
:2000B800E0BFC615E03FC715E0BFCA171080010410000015E0BFCA1700C0010410C000154F
:2000C000E0BFCA1700C0008410C0001501C00144000D883A0140027429511304E13FC8175B
:2000C8000092414001C00184000D883A0140027429512604E13FC81700924140E0BFC61707
:2000D0001080800C10002A26E0FFCB1700800134109000041885883A10800037E0BFCD15D3
:2000D800E13FC81700925100E0BFCA171080020410C00017E0BFE704180D883A0140027401
:2000E000295133041009883A0080550001C00044000D883A0140027429513404E13FC81763
:2000E8000092414001C00084000D883AE17FCD17E13FC8170092414001C00104000D883AE6
:2000F0000140027429513904E13FC81700924140E0BFE70401C0010401800444100B883A7A
:2000F800E13FC8170092414000800044E0BFC715E0BFC71710800058103FB71E01000F748A
:200100002102400400914400E0BFC91710800017E0BFC6150000160601C00C44000D883A07
:200108000140027429513D04E13FC8170092414001C00C84000D883A0140027429514E04B0
:20011000E13FC81700924140E0BFC91710800017E0BFC615E17FC6170100027421115F04D4
:2001180000804BC0010000742117E40400914400E0BFC6171080800C103FE71EE13FC817E7
:2001200000925100E03FC715003F9306DEFFFD042805883ADFC00015D9800115D9C0021569
:2001280021400217D9C00104100D883A00828780DFC00017DEC00304F800283ADEFFFC04A5
:20013000DFC00015D9400115D9800215D9C00315008002741099020410800017200B883A72
:20013800D9800104110002170084B540DFC00017DEC00404F800283ADEFFE4042807883A3A
:20014000DFC01A15D9C01B1500A0003410BFFFC402008204D8800215D8800515D9C01B0481
:20014800D80B883A00BFFFC4D8C00015D8C00415DA00030DD880038D00805BC0D8C00017F6
:2001500018000005DFC01A17DEC01C04F800283ADEFFE3042007883ADFC01A15D9801B1586
:20015800D9C01C1501000274211902042100001700A0003410BFFFC4280D883A02008204E9
:20016000D8800215D8800515D9C01B04D80B883A00BFFFC4D8C00015D8C00415DA00030D77
:20016800D880038D00805BC0D8C0001718000005DFC01A17DEC01D04F800283ADEFFB704A7
:20017000DFC04815DDC04615D9402D15D9003915302F883AD9C02E15DF004715DD8045150A
:20017800DD404415DD004315DCC04215DC804115DC404015DC003F1500872F001080001719
:200180001009883AD880341500893D40D8C02D17D88038151880030B1080200C10000226C2
:20018800188004171006B126DCC03917D8C0040405400274D9001E04AD517084D8C01E15B8
:20019000D8002015D8001F15D8003315D8003615D80037151811883AD8003A15D8003B1595
:20019800D8002F15D9002815B88000071002772600C00944B823883A10C0021E0000140673
:2001A00010C003268C40004488800007103FFC1E8DE1C83A80000E26D8C02017D8801F173D
:2001A80045C000151C07883A10800044D8C0201544000115D8801F1500C001C418809916E5
:2001B00042000204D9402F172C0B883AD9402F158880000710009A268DC000448C400047AF
:2001B8000021883A00BFFFC40025883ADC002905D8002785D8002B05D8802A15D800311590
:2001C00005001604058002444039883A9021883ABDC0004488BFF804A0831E36100490BAAE
:2001C80000C0023418C1CD0410C5883A108000171000683A000812DC000813940008139433
:2001D000000812D00008139400081394000813940008139400081394000813940008099C5E
:2001D800000811E000081394000808A8000809C00008139400080A4C00080A1000080A1085
:2001E00000080A1000080A1000080A1000080A1000080A1000080A1000080A100008139462
:2001E80000081394000813940008139400081394000813940008139400081394000813947F
:2001F0000008139400080B1000080A580008139400080A580008139400081394000813948D
:2001F8000008139400080B04000813940008139400080BD8000813940008139400081394CB
:200200000008139400081394000810540008139400081394000810C0000813940008139480
:2002080000081394000813940008139400081394000813940008139400081394000813945E
:200210000008117C000812FC00080A5800080A5800080A5800081370000812FC0008139495
:20021800000813940008131C0008139400081330000811C0000808B4000811F80008139489
:20022000000812040008139400081268000813940008139400081288D8C03117D8802E15F4
:2002280000C7C83AD8C0311584000114BC400007003F970600800C04D880270500801E04E1
:20023000D8802745D9002A17D8802E17D8002785E011883A10C0010415000017002D883A0C
:20023800808000942002B61600BFDFC480A4703AD8C02E1594800094A002A01E014002745A
:2002400029516904D9403A1504401E04D8C02A170039883A1801E6260029883A002D883A16
:2002480000020506D9402D17D9801E049809883A008946C01000081EDA000404003F610601
:20025000D880201710000426D9402D17D9003917D9801E04008946C0D8802D1710C0030BBB
:20025800D8802F1718C0100C1806251EDFC04817DF004717DDC04617DD804517DD4044172D
:20026000DD004317DCC04217DC804117DC404017DC003F17DEC04904F800283AD9002E1796
:20026800D9402E172100001728800104D9003115203FB916D8802E15BC400007003F5406AF
:20027000BC40000701000A84B8C00044890769268CBFF404B486B9360009883A1823883ACD
:2002780001400284008E31C088C000071489883A8DC000441CBFF404B823883AB4BFF82ED8
:200280001823883A20060416D9002A15003F41068CBFF404D80031150009883AB823883ABA
:2002880001400284008E31C088C000079089883ABDC000441CBFF404B823883AB4BFF82E1C
:200290001823883AD9003115003F320684002014BC400007003F2E068025883ADC0029031E
:20029800E011883A84003FCC8007721E9080020C1004A526D9002E17D9402E17D8802E17D7
:2002A000210000172940011710800204D9003615D9403715D8802E15D9003617D94037173E
:2002A800DA003E150400004400890F40DA003E171404731ED9003617D9403717000D883AB5
:2002B000000F883A008F7240DA003E1710061B16DF002783008011C41445810E0400027466
:2002B8008411610400C000C400BFDFC4D8C0291590A4703AD8C02B15D8002A15D800321584
:2002C00000006C0684000214BC400007003F00068025883ADC002903E011883A84003FCC19
:2002C80080073F1E948004149080080C1003BB26D9002E17208001172500001721000204B5
:2002D000D9002E15102D883A1003BD16D9002A17DF0027832003D01600FFDFC4A584B03AAC
:2002D80090E4703A10015026B0037026DC402915DC001E04B023883A402D883AA009883A91
:2002E000880B883A01800284000F883A008DBA4010800C04843FFFC4A009883A880B883A64
:2002E8008080000501800284000F883A008D5A801029883A10C4B03A1823883A103FEF1EA0
:2002F000D8C02817DC402917B011883A1C07C83AD8C02B15000031068025883ADC00290395
:2002F800E011883A84003FCC80070A1E948004149080080C1002F626D9002E17D9402A17FF
:20030000D800278520800204250000172580011728043716013FDFC4A586B03AD8802E15AE
:200308009124703A1802F71ED9402A170039883A2806DF260029883A002D883ADC001E04E7
:20031000A006D0FAB008977AB02CD0FAA50001CCA0800C04843FFFC420E8B03A80800005CF
:20031800A586B03A183FF61E90C0004C18013F2610803FCC1080201C10BFE00400C00C0441
:2003200010C13A2680FFFFC5D8C0281780BFFFC41021883A1887C83AD8C02B15D8802B176A
:20032800D9002A171100010E2005883AD8802915D8003215E7003FCCE700201CE73FE004C0
:20033000E0000326D8C0291718C00044D8C0291590C0008CD8C02C1518000326D8C029170C
:2003380018C00084D8C0291590C0210CD8C030151801C31ED9003117D8C0291720E9C83A1B
:200340000501BF0E02400404D8C02017D8801F174D053D0E0140027429517484DC403C15F0
:20034800D9403515A023883A482D883A9029883A070001C48025883ADC002D17000003069F
:200350008C7FFC0442000204B440130E0100027418C004041080004421117484410000157A
:2003580045800115D8C02015D8801F15E0BFF40ED9801E04800B883A9809883A008946C0F6
:20036000103EF51E8C7FFC04D8C02017D8801F17DA000404B47FED169021883AA025883AA2
:200368008829883ADC403C17D9403517A0C7883A108000444140001545000115D8C0201573
:20037000D8801F15010001C42082C116DF00278742000204E0000C26D8801F17D9002784A9
:2003780018C0004410800044410000150100004441000115D8C02015D8801F15010001C464
:2003800020825A1642000204D8802C1710000C26D8801F17D900270418C000841080004464
:20038800410000150100008441000115D8C02015D8801F15010001C42082541642000204B0
:20039000D9003017008020042081B926D9402A17D8802B1728ADC83A05802F0E070004046D
:20039800D8801F17E583E20E0140027429517084DC402A15D9402C15B023883A050001C426
:2003A000902D883A8025883ADC002D17000003068C7FFC0442000204E440110E18C00404B8
:2003A800108000444540001547000115D8C02015D8801F15A0BFF60ED9801E04800B883AE6
:2003B0009809883A008946C0103EA31E8C7FFC04D8C02017D8801F17DA000404E47FEF167A
:2003B8009021883AB025883A882D883ADC402A17D9002C171D87883A10800044410000159B
:2003C00045800115D8C02015D8801F15010001C420820E16420002049080400C10013A1E50
:2003C800D9402B17D8801F17440000151947883A1080004441400115D8C02015D8801F15ED
:2003D000010001C42081F316420002049480010C90003226D9403117D880291728A1C83A88
:2003D80004002E0E04400404D8801F178C04DB0E0140027429517484D9403515048001C49D
:2003E000DD002D1700000306843FFC04420002048C00130E0100027418C0040410800044F0
:2003E800211174844100001544400115D8C02015D8801F1590BFF40ED9801E04A00B883A49
:2003F0009809883A008946C0103E631E843FFC04D8C02017D8801F17DA0004048C3FED165C
:2003F800D94035171C07883A108000444140001544000115D8C02015D8801F15010001C4B8
:200400002080060ED9402D17D9801E049809883A008946C0103E501ED8C02017D880311733
:20040800D90029171100010E2005883AD9402F17288B883AD9402F151801BE1EB88000074F
:20041000D8001F15DA000404103D891EB823883A003D9F068025883ADC002903E011883A49
:2004180084003FCC8005E61E948004149080080C10022026D9002E17D9402A17D800278508
:2004200020C0020425000017258001172803AD16013FDFC4A584B03AD8C02E159124703ABF
:200428000039883A103EB01ED8802A171002E71ED8002A15D8002B15DC001E04003EF70685
:200430008025883ADC002903E011883A84003FCC8005C81E0100027421116404D9003A1557
:200438009080080C10007226D9402E172D0000172D80011729400204D9402E159080004C4A
:200440001001AA26A584B03A10032526D8C02A1700800C04D8802705DC402745D800278551
:20044800908000941804A31600BFDFC490A4703A948000940039883AD9003A17DC001E0410
:20045000A08003CCB006973A2085883AA028D13A10800003B02CD13A843FFFC41D28B03AAD
:2004580080800005A584B03A103FF51ED8C028171C07C83AD8C02B15003EC806D8C02E174D
:20046000D9002E178025883A188000172100010400C00044E011883AD8C02915D800278511
:20046800D8801405D9002E15D8C02B15D8002A15D8003215DC0014040039883A003EC406E2
:200470008025883ADC002903E011883A84003FCC803E8726D8C02B03D8C02785003E84067E
:2004780000C00044D8C0290500C00AC4D8C02B05BC400007003D460684000814BC40000715
:20048000003D4306D8802E178025883AD800278514000017E011883A15000104800421268B
:20048800D8C02A171803EE16180D883A000B883A8009883ADF003E150087CE80DA003E1727
:2004900010046A261405C83AD8802B151003EA16DF002783D8802915DD002E15D8002A158C
:20049800D8003215003E93068025883ADC002903E011883A84003FCC803F7C26D8C02B0376
:2004A000D8C02785003F79068025883ADC002903E011883A84003FCC8005741E01000274FB
:2004A80021116904D9003A159080080C103F8E1E9080040C1002A726D8802E17002D883AC3
:2004B0001500001710800104D8802E15003F8B0684000054BC400007003D0D06D8802B074B
:2004B8001002A41E00C00044D8C0290500C00804D8C02B05BC400007003D05068025883A40
:2004C000DC002903E011883A84003FCC803E0626D8C02B03D8C02785003E0306BC40000794
:2004C80000801B0488830A2684000414003CF8068025883ADC002903E011883A84003FCCB3
:2004D0008005471E9080080C10028C26D9002E17D9402F17208000172807D7FA21000104E0
:2004D800D9002E151140001510C00115003CBE0684001014BC400007003CE5060100027453
:2004E000211169040039883AD9003A1504401E04003F69068025883ADC002903E011883A04
:2004E80084003FCC8005261E883D652600C00044D8C02915DC401405D8002785003F7A06FA
:2004F0000100027421116904D9003A15D8C02E151025883A04401E04A584B03A1000FA1E3B
:2004F8000039883A0080008410803FCC00C0004410C2162600C0008410FE0E1E003D460631
:20050000D8C02017003E73060080194414407C0ED9003617D9403717000D883A000F883A6D
:20050800D8C03D15DA003E15008F5C00D8C03D17DA003E171000F51ED8801F17010002748E
:200510002111700418C0004410800044410000150100004441000115D8C02015D8801F15EA
:20051800010001C42082661642000204D8802617D9403317114002169080004C103EB326B3
:20052000D8803817D9003417D94038171887883AD8801F17410000154140011510800044D8
:20052800D8C02015D8801F15010001C42082AF1642000204D8803317143FFFC4043EA30E3A
:2005300004400404D8801F178C00860E0140027429517084D9402C15058001C4DD002D17C7
:200538000000030642000204843FFC048C00800E18C004041080004445400015444001158D
:20054000D8C02015D8801F15B0BFF60ED9801E04A00B883A9809883A008946C0103D0E1E7C
:20054800D8C02017D8801F17DA000404003FEE06D9403117D880291728ADC83A05BE430E3D
:2005500007000404D8801F17E583A20E0140027429517084DC403015D9402C15B023883A61
:20055800050001C4902D883A8025883ADC002D17000003068C7FFC0442000204E440110E14
:2005600018C00404108000444540001547000115D8C02015D8801F15A0BFF60ED9801E0499
:20056800800B883A9809883A008946C0103CEA1E8C7FFC04D8C02017D8801F17DA00040496
:20057000E47FEF169021883AB025883A882D883ADC403017D9002C171D87883A10800044C9
:200578004100001545800115D8C02015D8801F15010001C420819A1642000204003E130623
:20058000D94033170080004418C000441141710EDC401F1700800044408001158C4000444B
:2005880044000015D8C02015DC401F15008001C41441741642000204D8803817D9003417A6
:200590008C40004410C7883A4080011541000015D8C02015DC401F15008001C41441721637
:2005980045800204D9003617D9403717000D883A000F883AD8C03D15008F5C00D8C03D178A
:2005A0001000B326D9403317840000448C40004428BFFFC41887883AB0800115B4000015FD
:2005A800D8C02015DC401F15008001C41440D216B5800204D9003B17DF0022C48C4000445A
:2005B00020C7883AB7000015B1000115D8C02015DC401F15008001C414400E16B20002045D
:2005B800003E1A060100027421117084D9002C15D9002C171C07883A44000115410000155D
:2005C00010800044D8C02015D8801F15010001C420BE0D0ED9402D17D9801E049809883AF4
:2005C800008946C0103C8C1ED8C02017DA000404003E0606D9402D17D9801E049809883A58
:2005D000008946C0103E3D26003C8306D9402D17D9801E049809883A008946C0103C7E1E54
:2005D800D8C02017DA000404003DEB06D9402D17D9801E049809883A008946C0103C761E7A
:2005E000D8C02017DA000404003D9F06D9402D17D9801E049809883A008946C0103C6E1EC6
:2005E800D8C02017DA000404003DA506D9402A17D8002785283F081600FFDFC4A584B03A42
:2005F00090E4703A103C51260039883A003E5A069080040C10013D26D8C02E17D9002A17E6
:2005F800D8002785188001041D000017002D883A20013F1600FFDFC4D8802E1590E4703ACE
:20060000A03D09260039883A003D0C06DC4026170441830EDC403217D88033171440010EEB
:200608001023883A04400A0ED8801F171C47883A440000151080004444400115D8C020153A
:20061000D8801F15010001C4208275164200020488027B16D90032172463C83A0440990E52
:2006180005800404D8801F17B441530E0100027421117084D9002C15070001C4DD002D17AD
:2006200000000306420002048C7FFC04B4414D0E18C00404108000444540001545800115E5
:20062800D8C02015D8801F15E0BFF60ED9801E04A00B883A9809883A008946C0103C261E4C
:20063000D8C02017D8801F17DA000404003FEE06D9402D17D9801E049809883A008946C06E
:20063800103C1D1ED8C02017DF002787DA000404003D38069080040C10005C26D8C02E17D3
:20064000D9002A17D8002785188001041D000017002D883A20005E1600FFDFC4D8802E156B
:2006480090E4703A0039883AA03DDF2600800244153C8E36A5000C04DC001DC4DD001DC58B
:20065000D8C028171C07C83AD8C02B15003CD306D8803317143FFFC4043F560E0700040433
:20065800E403530E0140027429517084D9402C1501C001C4DD002D1700000306843FFC0448
:20066000B5800204E400130E18C004048C400044B5400015B7000115D8C02015DC401F1556
:200668003C7FF60ED9801E04A00B883A9809883AD9C03D15008946C0D9C03D17103BE61EB2
:20067000843FFC04D8C02017DC401F17DD800404E43FED16D8802C171C07883A8C4000446B
:20067800B0800015B4000115D8C02015DC401F15008001C4147F2E0ED9402D17D9801E044A
:200680009809883A008946C0103BD31ED8C02017DC401F17DD800404003F26069080040C1B
:200688001000C326D9402E172D00001729400104D9402E15A02DD7FAB005883A103C430E3B
:20069000D9402A170529C83A07000B44A004C03A05ADC83ADF002785B0ADC83A28022E16C0
:2006980000BFDFC490A4703A003C3F069080100CD800278510012526D9402E17D8C02A173E
:2006A000002D883A288001042D00000B183FA20ED8802E150039883AA584B03A103C321E1A
:2006A80000800044003E5006D9402D17D9801E049809883A008946C0103BA71ED8C0201731
:2006B000DA000404D9003217D8802617D94033178123883A114002169100004C20000D262F
:2006B800D9003817D94034171907883AD9001F1741400015D940381721000044D8C0201575
:2006C00041400115D9001F15014001C42901DC1642000204D90033178121883A2085C83ADE
:2006C8008461C83A1400010E1021883A04000A0ED9001F171C07883A444000152100004407
:2006D00044000115D8C02015D9001F15014001C42901E616420002048001F6161421C83A9E
:2006D800043CFA0E04400404D8801F178C3EDD0E0140027429517084D9402C15058001C462
:2006E000DD002D170000030642000204843FFC048C3ED70E18C004041080004445400015C8
:2006E80044400115D8C02015D8801F15B0BFF60ED9801E04A00B883A9809883A008946C0B2
:2006F000103B651ED8C02017D8801F17DA000404003FEE069088703A203E8D1EDC401F178D
:2006F80040800115440000158C400044D8C02015DC401F15008001C4147F7F16458002044E
:20070000003EAC06D9402D17D9801E049809883A008946C0103B501ED8C02017DC401F1745
:20070800DA000404003E8406D9402D17D9801E049809883A008946C0103B471ED8C02017DE
:20071000DC401F17DD800404003E86060029883AA5000C04DC001DC4DD001DC5003F3806AF
:20071800D9402D17D9801E049809883A008946C0103B391ED8C02017DA000404003C7306EF
:20072000D9003617D9403717DA003E1500890F40DA003E171000BD1E008011C414411E0E37
:20072800040002748411630400C000C400BFDFC4D8C0291590A4703ADF002783D8C02B1540
:20073000D8002A15D8003215003BFA069080100CD800278510009426D9402E17D8C02A1787
:20073800002D883A288001042D00000B183EC10EA586B03AD8802E15183EC21E0039883AC7
:200740000005883A003DB806D8C02E17D9002E17D9402E1718C000172100011729400204E7
:20074800D8C03615D9003715D9402E15003B5A069080100C10010726D8802E171500000F67
:2007500010800104D8802E15A02DD7FAB005883A003B7D069080100C10010526D8C02E1741
:20075800002D883A1D00000B18C00104D8C02E15003CE206BC400007003A65069080040CC6
:2007600010010126D8C02E17D9002F171880001718C00104D8C02E1511000015003A320646
:20076800D9002A17D8002785203D8D1600BFDFC490A4703A003AD506014002742951708459
:20077000D9402C15D9402C171C47883A108000444140001544400115D8C02015D8801F1531
:20077800010001C420BF301642000204003F35060100027421117084D9002C15003C3C067F
:20078000D9402D17D9801E049809883A008946C0103AD11ED8C02017DA000404003D9306CF
:20078800D8801F17014002740100004418C0004410800044295170044100011541400015FC
:20079000D8C02015D8801F15010001C42080B516420002048800041ED88033171000021EFB
:200798009080004C103C3926D9003817D8801F17D940341720C7883A10800044410001154C
:2007A00041400015D8C02015D8801F15010001C420818016420002040463C83A0440CB0E7F
:2007A80005800404B440E80E0140027429517084D9402C15070001C4DD002D170000030645
:2007B000420002048C7FFC04B440E20E18C00404108000444540001545800115D8C02015FC
:2007B800D8801F15E0BFF60ED9801E04A00B883A9809883A008946C0103A971ED8C020174A
:2007C000D8801F17DA000404003FEE06D9002E17D9402A17002D883A20800104250000172E
:2007C800283E7D0E003EDA06D9002E17D9402A17002D883A2080010425000017283E2D0E19
:2007D000003F6B06D8C02E150039883A003ED206BC40004384000814BDC000448C403FCCF6
:2007D8008C40201C8C7FE0040039E906D9402D17D9801E049809883A008946C0103A761E3A
:2007E000D8C02017DA000404003D4A06D9002A1705BFF7C400BFFFC48DAC703A20806A268D
:2007E800008011C4B0813726D900371790C04014D8C02C1520015D16DD003717D8002905A5
:2007F0000080198488814026008011848881712600801144B0816226D8C02A17D8802104C4
:2007F800D8800315D9403617D8802504D8800215D8802604D8C00015D880011501C0008439
:20080000A00D883A9809883AD8C03D15DA003E150084FA801021883A008019C4D8C03D17B5
:20080800DA003E178880E726008011C48880D42680F9883AD9003617000D883A000F883A34
:20081000A00B883ADA003E15008F5C00DA003E171000E426D88021171700062E01000C040E
:2008180010C00044D8C0211511000005D8802117173FFB361405C83AD8803315008011C4A1
:20082000B080C526008019441441D80ED8C0261700801984D8C0321588813426D8C0321770
:20082800D9003317190125169480004C9001841E1805883A1801CB16D8C03217044019C4CA
:20083000D8C02B15DF002907E000A61EDF002783D8802915DC802C17D8002A15003AF50613
:200838000400027484116004003A7E06D900391704001004800B883A00874DC0D9002D1730
:2008400020800015208004151001D026D8802D171400051500394406040002748411620461
:20084800003EE106D9402D17D9801E049809883A008946C0103A081EDC402617D8C0201709
:20085000DA000404003F430601400184D9402A15003F9506D8C02E171D00001718C0010438
:20085800D8C02E15A02DD7FAB005883A003A7606D9002E17002D883A25000017210001046B
:20086000D9002E15003BDD069480100C90006E26D9402E17D8C02F17288000172940010481
:20086800D9402E1510C0000D00392F06D9402D17D9801E049809883A008946C01039E61EB2
:20087000D8C02017D8801F17DA000404D9403317108000444400001528C7883A003B550652
:200878008009883ADF003E1500893D40D8802B15DA003E17103C160E0005883A003C140689
:2008800000BFFFC40039D9060100027421117484D9003515003AE406013FFFC40039FA069A
:20088800D9402D17D9801E049809883A008946C01039C91ED8C02017DA000404003D8406DE
:200890000023883A003D83060100027421117084D9002C15D9002C171C47883A10800044D1
:200898004100001544400115D8C02015D8801F15010001C420BFCD1642000204003FD3060F
:2008A000D9402D17D9801E049809883A008946C01039B11ED8802617D8C02017DA00040410
:2008A800003E1C06D8802A1700C001841880012E1805883AD8802B151000F3160400027421
:2008B000D8802915DD002E15D8002A15D800321584116E040039883A003A7D060100027406
:2008B80021117484D9003515003B3D06D9402D17D9801E049809883A008946C01039961E8E
:2008C000D8802617D9403317D8C02017DA0004042885C83A003E10060080004410803FCC0D
:2008C80000C0004410FA102600C0008410FB8226003A42060021883A003E080607000B44CE
:2008D000DF0027850039E306D9002E17D9402F172080001721000104D9002E15114000157F
:2008D8000038C10600C00B44D8C02785D8802915DC802C17D8002A1507000B44003A51067B
:2008E0009080004C1000941ED88021171405C83AD8803315B441151EDD80261700BFFF44CB
:2008E800B0801A16D9402A172D801816DD803215003F3A061025883A0039883A0080008442
:2008F000003FD6069080004C103F191ED8802117003F28060100027421117084D9002C1537
:2008F800003C7C06E005883A003F2206D9002A17DF002783DD002E15D9002915D9002B1521
:20090000D8002A15D8003215003A2A068C7FFF84B5BFFFC4DD802615DC4022C5B000C3164E
:2009080000800AC4D88023050080024415806E1600800C04B5800C04D8802345DD80238588
:20091000D88023C4DF0022C4D8C033171739C83AD9003317E0C7883ADF003B15D8C02B15FC
:20091800008000441100B70ED8C02B1718C00044D8C02B151805883A1800B016D80032157B
:20092000003F1006D8802A17103EC71EDC002A15003EC506D9402D17D9801E049809883A37
:20092800008946C010392C1EDC402617D8C02017D8801F17DA000404003E7706182F883A31
:20093000D8002A1500389306D8C02A17D8802104D8800315D9403617D8802504D8800215A3
:20093800D8802604D8C000159809883AD880011501C000C4A00D883ADA003E150084FA8080
:20094000D9002A17DA003E171021883A1139883A2007883A8100000700800C0420806F2619
:20094800D8C02617E0F9883A003EC20600C00B442520003CD8C02905003EA106D8C03217FD
:2009500000C0890E00800044D90033171105883AD8802B1510005F16044019C4003ED90616
:20095800D9002A1720C00044003E9C06D9002A1700C0680E2000461E9480004C9000441E3B
:200960001805883A1800A116D8C03217D8C02B15003ECC06D9402A17D8802104D8800315B9
:20096800D9400015D8802504D9403617D8800215D8802604D880011501C000C4A00D883A07
:200970009809883ADA003E150084FA80D8C02A17DA003E171021883A0080118480F9883A8E
:2009780088BFCC26003E9306DF0022C4DC002A159829883AE021883A4027883AB009883A85
:2009800001400284008E1EC010800C04843FFFC4B009883A0140028480800005008E168093
:20098800102D883A0080024415BFF4169811883AB0800C04A027883A8029883AA17FFFC42A
:20099000A0BFFFC5DC002A172F00782ED9C023843D0FC83AD9002344E1CF883A00000106EB
:200998002880000320800005210000442940004421FFFB1ED88023041505C83AD8C023440A
:2009A0001885883A003F70060005883A003F0B06D9002A17D8C03217208000441885883ACE
:2009A800D8802B15103E870E0005883A003E85060100027421117084D9002C15003CC50666
:2009B000D8C0321718C00044D8C02B151805883A183FA10E0005883A003F9F06D90036179C
:2009B800000D883A000F883AA00B883AD8C03D15DA003E15008F5C00D8C03D17DA003E17F5
:2009C000103F87260080004410C7C83AD8C02615003F840620000E1E9480004C90000C1E7C
:2009C80000800044D8802B15003E660600800B4405ADC83AD8802305003F3B060005883ABF
:2009D000003F4E0690A4703A903F4A26003F4606D8C02A1718C00084D8C02B151805883AE0
:2009D800183E580E003FD0060080008410C5C83A003F7506D9402E17D9002E17BC400043DE
:2009E0002940001720800104D8802E15D9402A15182F883A283DF10E8C403FCC017FFFC458
:2009E8008C40201CD9402A158C7FE0040037D8069080004C0039883A10000726D8C0281720
:2009F000DC001DC400800C041C07C83AD8801DC5D8C02B1500393106D8002B15DC001E04DD
:2009F80000392E060005883A003E3306DD802617003F0706D8C02B03D8C02785003A3506CF
:200A0000D8C02B03D8C02785003A17060005883A003F5D06D8C02B03D8C027850038F306D1
:200A0800D8C02B03D8C027850038BE06D8802344003F0506D8C02B03D8C0278500388B06EC
:200A1000D8C02B03D8C02785003AD706D9403917008003042880001500BFFFC400384306F5
:200A1800D8C02B03D8C02785003AB606D8C02B03D8C02785003A8906DEFFB804DFC0471557
:200A2000DDC04515DD404315D9002D15282F883A302B883AD9C02E15DF004615DD8044152D
:200A2800DD004215DCC04115DC804015DC403F15DC003E1500872F00108000171009883A00
:200A3000D880341500893D40D8803715D8802D171000022610800E171000FB26B880030B5B
:200A380010C8000C1800061EB900191700F7FFC41088001420C6703AB880030DB8C01915B1
:200A400010C0020C1800C326B8C004171800C1261080068C00C0028410C0C626D8C0040461
:200A480005000274D9001E04A5117884D8C01E15D8002015D8001F15D8003315D80036153F
:200A5000D80038151811883AD8003915D8003A15D8002F15D9002815A880000710028B2605
:200A580000C00944A823883A10C0021E0000140610C003268C40004488800007103FFC1E59
:200A60008D61C83A80000E26D8C02017D8801F17454000151C07883A10800044D8C0201555
:200A680044000115D8801F1500C001C41880A91642000204D9402F172C0B883AD9402F15AF
:200A7000888000071000AA268D4000448C4000470021883A00BFFFC40025883ADC002905FD
:200A7800D8002785D8002B05D8802A15D800311504C01604058002449021883A4039883AC6
:200A8000AD40004488BFF80498833236100490BA00C0023418CA890410C5883A108000175E
:200A88001000683A000835CC000836D4000836D4000835EC000836D4000836D4000836D410
:200A9000000836D4000836D4000836D400082CD4000834DC000836D400082B9800082CF8E7
:200A9800000836D400082D4800082D5400082D5400082D5400082D5400082D5400082D5479
:200AA00000082D5400082D5400082D54000836D4000836D4000836D4000836D4000836D441
:200AA800000836D4000836D4000836D4000836D4000836D400082D9000082E58000836D46F
:200AB00000082E58000836D4000836D4000836D4000836D400082F04000836D4000836D4F1
:200AB80000082F10000836D4000836D4000836D4000836D4000836D400083394000836D49C
:200AC000000836D400083400000836D4000836D4000836D4000836D4000836D4000836D45C
:200AC800000836D4000836D4000836D4000836D400083678000835F800082E5800082E58BF
:200AD00000082E5800083618000835F8000836D4000836D400083624000836D400083638DF
:200AD800000834BC00082BA4000834F4000836D400083500000836D400083564000836D4EB
:200AE000000836D400083584D8C03117D8802E1500C7C83AD8C0311584000114AC40000775
:200AE800003F970600800C04D880270500801E04D8802745D9002A17D8802E17D80027855D
:200AF000E011883A10C0010414C00017002D883A808000942002CA1600BFDFC480A4703ABE
:200AF800D8C02E15948000949802B41E0140027429516904D940391504401E04D8802A17EB
:200B00000039883A1001FA260027883A002D883A00021906D9002D17B80B883A0084C2C008
:200B08001005DC1EB880030B00C002841080068C10FF3A1EB880038F103F3816D9C02E1764
:200B1000D9002D17A80D883AB80B883A0084B70000001106D9002D17D9801E04B80B883A3D
:200B1800008AAD801000081EDA000404003F5106D880201710000426D9002D17D9801E04F7
:200B2000B80B883A008AAD80B880030B1080100C1005C01ED8802F17DFC04717DF004617BD
:200B2800DDC04517DD804417DD404317DD004217DCC04117DC804017DC403F17DC003E1705
:200B3000DEC04804F800283AD9002D170086C380003F0206D9002E17D9402E172100001780
:200B380028800104D9003115203FA716D8802E15AC400007003F4206AC40000701000A841E
:200B4000A8C00044890758268CBFF404B486AE360009883A1823883A01400284008E31C06C
:200B480088C000071489883A8D4000441CBFF404A823883AB4BFF82E1823883A2005F616A7
:200B5000D9002A15003F2F0684002014AC400007003F2B068CBFF404D80031150009883AB2
:200B5800A823883A01400284008E31C088C000079089883AAD4000441CBFF404A823883AEF
:200B6000B4BFF82E1823883AD9003115003F1D068025883ADC002903E011883A84003FCCAD
:200B68008007531E948004149080080C1003A326D9002E172080011724C000172100020451
:200B7000D9002E15102D883A10047316D9002A17DF0027832003E41600FFDFC49D84B03A40
:200B780090E4703A10018026B003AB26DC402915DC001E04B023883A402D883A9809883A85
:200B8000880B883A01800284000F883A008DBA4010800C04843FFFC49809883A880B883AC3
:200B88008080000501800284000F883A008D5A801027883A10C4B03A1823883A103FEF1EF9
:200B9000D8C02817DC402917B011883A1C07C83AD8C02B1500005F068025883ADC002903BE
:200B9800E011883A84003FCC80071E1E9080020C1004AF26D9002E17D9402E17D8802E1718
:200BA000210000172940011710800204D9003615D9403815D8802E15D9003617D940381733
:200BA800DA003D150400004400890F40DA003D171404441ED9003617D9403817000D883ADC
:200BB000000F883A008F7240DA003D171005E316DF002783008011C41445580E04000274C0
:200BB8008411610400C000C400BFDFC4D8C0291590A4703AD8C02B15D8002A15D80032157B
:200BC00000003A0684000214AC400007003EBC068025883ADC002903E011883A84003FCC97
:200BC8008007001E948004149080080C1002FA26D9002E17D9402A17D80027852080020444
:200BD00024C00017258001172804B116013FDFC49D86B03AD8802E159124703A1802FB1E3D
:200BD800D8C02A170039883A1805E5260027883A002D883ADC001E049806D0FAB008977AFA
:200BE000B02CD0FA9CC001CC98800C04843FFFC420E6B03A808000059D86B03A183FF61E0B
:200BE80090C0004C1801412610803FCC1080201C10BFE00400C00C0410C13C2680FFFFC571
:200BF000D8C0281780BFFFC41021883A1887C83AD8C02B15D8802B17D9002A171100010ECC
:200BF8002005883AD8802915D8003215E7003FCCE700201CE73FE004E0000326D8C0291741
:200C000018C00044D8C0291590C0008CD8C02C1518000326D8C0291718C00084D8C02915E2
:200C080090C0210CD8C030151801C51ED9003117D8C0291720E7C83A04C1C10E0240040496
:200C1000D8C02017D8801F174CC52F0E0140027429517C84DC403B15D94035159823883A9C
:200C1800482D883A9027883A070001C48025883ADC002D17000003068C7FFC04420002045D
:200C2000B440130E0100027418C004041080004421117C844100001545800115D8C0201544
:200C2800D8801F15E0BFF40ED9801E04B80B883A8009883A008AAD80103EF31E8C7FFC0413
:200C3000D8C02017D8801F17DA000404B47FED169021883A9825883A8827883ADC403B175E
:200C3800D940351798C7883A108000444140001544C00115D8C02015D8801F15010001C473
:200C40002082C516DF00278742000204E0000C26D8801F17D900278418C00044108000442E
:200C4800410000150100004441000115D8C02015D8801F15010001C420825E16420002041D
:200C5000D8802C1710000C26D8801F17D900270418C000841080004441000015010000840A
:200C580041000115D8C02015D8801F15010001C42082581642000204D900301700802004EA
:200C60002081BB26D9402A17D8802B1728ADC83A0580310E07000404D8801F17E584360E19
:200C68000140027429517884DC402A15D9402C15B023883A04C001C4A82D883A902B883A58
:200C70008025883ADC002D17000003068C7FFC0442000204E440110E18C00404108000448A
:200C78004500001547000115D8C02015D8801F1598BFF60ED9801E04B80B883A8009883AA6
:200C8000008AAD80103EA01E8C7FFC04D8C02017D8801F17DA000404E47FEF169021883A6C
:200C8800A825883AB02B883A882D883ADC402A17D9002C171D87883A1080004441000015A0
:200C900045800115D8C02015D8801F15010001C420821016420002049080400C10013A1E75
:200C9800D9402B17D8801F17440000151947883A1080004441400115D8C02015D8801F1514
:200CA000010001C42081F516420002049480010C90003226D9403117D880291728A1C83AAD
:200CA80004002E0E04400404D8801F178C04C40E0140027429517C84D9403515048001C4D3
:200CB000DCC02D1700000306843FFC04420002048C00130E0100027418C004041080004458
:200CB80021117C844100001544400115D8C02015D8801F1590BFF40ED9801E04B80B883A50
:200CC0009809883A008AAD80103E5F1E843FFC04D8C02017D8801F17DA0004048C3FED165F
:200CC800D94035171C07883A108000444140001544000115D8C02015D8801F15010001C4DF
:200CD0002080060ED9002D17D9801E04B80B883A008AAD80103E4C1ED8C02017D880311755
:200CD800D90029171100010E2005883AD9402F17288B883AD9402F151801C01EA880000785
:200CE000D8001F15DA000404103D751EA823883A003D8B068025883ADC002903E011883AA9
:200CE80084003FCC8005E51E948004149080080C10022B26D9002E17D9402A17D800278526
:200CF00020C0020424C000172580011728042E16013FDFC49D84B03AD8C02E159124703AAE
:200CF8000039883A103E801ED9002A172002E01ED8002A15D8002B15DC001E04003EF50655
:200D00008025883ADC002903E011883A84003FCC8005BA1E0100027421116404D90039158D
:200D08009080080C10006126D9402E172CC000172D80011729400204D9402E159080004CC3
:200D10001001AC269D84B03A10038526D8C02A1700800C04D8802705DC402745D80027851E
:200D1800908000941804791600BFDFC490A4703A948000940039883AD9003917DC001E0462
:200D2000988003CCB006973A2085883A9826D13A10800003B02CD13A843FFFC41CE6B03A29
:200D2800808000059D84B03A103FF51ED8C028171C07C83AD8C02B15003EC6068025883AF4
:200D3000DC002903E011883A84003FCC803E9626D8C02B03D8C02785003E930600C00044FA
:200D3800D8C0290500C00AC4D8C02B05AC400007003D430684000814AC400007003D4006F0
:200D4000D8802E178025883AD800278514000017E011883A14C0010480042D26D8C02A17A4
:200D48001803E416180D883A000B883A8009883ADF003D150087CE80DA003D1710046826A1
:200D50001405C83AD8802B151003E016DF002783D8802915DCC02E15D8002A15D800321593
:200D5800003EA2068025883ADC002903E011883A84003FCC803F8D26D8C02B03D8C0278568
:200D6000003F8A068025883ADC002903E011883A84003FCC8005661E0100027421116904D4
:200D6800D90039159080080C103F9F1E9080040C1002EB26D8802E17002D883A14C000175A
:200D700010800104D8802E15003F9C06D8802B071002E11E00C00044D8C0290500C0080421
:200D7800D8C02B05AC400007003D050684000054AC400007003D02068025883ADC002903D9
:200D8000E011883A84003FCC803DE726D8C02B03D8C02785003DE40684001014AC4000077B
:200D8800003CF706AC40000700801B0488838F2684000414003CF2068025883ADC00290381
:200D9000E011883A84003FCC80053F1E9080080C1002D226D9002E17D9402F1720800017BD
:200D98002807D7FA21000104D9002E151140001510C00115003CB806D8C02E17D9002E17B8
:200DA0008025883A188000172100010400C00044E011883AD8C02915D8002785D880140575
:200DA800D9002E15D8C02B15D8002A15D8003215DC0014040039883A003E53060100027404
:200DB000211169040039883AD900391504401E04003F69068025883ADC002903E011883A2C
:200DB80084003FCC8005081E883D612600C00044D8C02915DC401405D8002785003FE906D4
:200DC0000140027429516904D9403915D8C02E151025883A04401E049D84B03A1000FC1EA1
:200DC8000039883A0080008410803FCC00C0004410C20F2600C0008410FD3326003E0B066D
:200DD000D8C02017003E71060080194414407E0ED9003617D9403817000D883A000F883A94
:200DD800D8C03C15DA003D15008F5C00D8C03C17DA003D171000F71ED8801F1701000274B8
:200DE0002111700418C0004410800044410000150100004441000115D8C02015D8801F1512
:200DE800010001C42082B81642000204D8802617D9403317114002169080004C103EB32689
:200DF000D8803717D9003417D94037171887883AD8801F1741000015414001151080004402
:200DF800D8C02015D8801F15010001C42083291642000204D8803317143FFFC4043EA30EE7
:200E000004400404D8801F178C00880E0140027429517884D9402C15058001C4DCC02D1725
:200E08000000030642000204843FFC048C00820E18C00404108000444500001544400115F2
:200E1000D8C02015D8801F15B0BFF60ED9801E04B80B883A9809883A008AAD80103D0A1E67
:200E1800D8C02017D8801F17DA000404003FEE06D9403117D880291728ADC83A05BE410E66
:200E200007000404D8801F17E5838F0E0140027429517884DC403015D9402C15B023883A93
:200E280004C001C4A82D883A902B883A8025883ADC002D17000003068C7FFC04420002042A
:200E3000E440110E18C00404108000444500001547000115D8C02015D8801F1598BFF60E40
:200E3800D9801E04B80B883A8009883A008AAD80103CE51E8C7FFC04D8C02017D8801F17E1
:200E4000DA000404E47FEF169021883AA825883AB02B883A882D883ADC403017D9002C17B3
:200E48001D87883A108000444100001545800115D8C02015D8801F15010001C420818E16BB
:200E500042000204003E0F06D94033170080004418C000441141530EDC401F1700800044DB
:200E5800408001158C40004444000015D8C02015DC401F15008001C414416B1642000204BB
:200E6000D8803717D90034178C40004410C7883A4080011541000015D8C02015DC401F15B6
:200E6800008001C41441691645800204D9003617D9403817000D883A000F883AD8C03C156F
:200E7000008F5C00D8C03C171000BC26D9403317840000448C40004428BFFFC41887883A54
:200E7800B0800115B4000015D8C02015DC401F15008001C414414316B5800204D9003A17D6
:200E8000DF0022C48C40004420C7883AB7000015B1000115D8C02015DC401F15008001C4DF
:200E880014400E16B2000204003E18060100027421117884D9002C15D9002C171C07883AFE
:200E9000440001154100001510800044D8C02015D8801F15010001C420BE0B0ED9002D178B
:200E9800D9801E04B80B883A008AAD80103C861ED8C02017DA000404003E0406D9002D177D
:200EA000D9801E04B80B883A008AAD80103E3B26003C7D06D9002D17D9801E04B80B883AF0
:200EA800008AAD80103C781ED8C02017DA000404003DE906D9002D17D9801E04B80B883A97
:200EB000008AAD80103C701ED8C02017DA000404003D9B06D9002D17D9801E04B80B883AE5
:200EB800008AAD80103C681ED8C02017DA000404003DA106D9402A17D8002785283F06169B
:200EC00000FFDFC49D84B03A90E4703A103C3B260039883A003E58069080040C1001B326F9
:200EC800D8C02E17D9002A17D8002785188001041CC00017002D883A2001B51600FFDFC482
:200ED000D8802E1590E4703A983D05260039883A003D0806DC4026170441D30EDC4032171F
:200ED800D88033171440010E1023883A04400A0ED8801F171C47883A4400001510800044C4
:200EE00044400115D8C02015D8801F15010001C4208265164200020488026116D9003217B1
:200EE8002463C83A04407B0E05800404D8801F17B4419D0E0100027421117884D9002C151A
:200EF000070001C4DCC02D1700000306420002048C7FFC04B441970E18C00404108000448C
:200EF8004500001545800115D8C02015D8801F15E0BFF60ED9801E04B80B883A9809883A46
:200F0000008AAD80103C201ED8C02017D8801F17DA000404003FEE06D9002D17D9801E0486
:200F0800B80B883A008AAD80103C171ED8C02017DF002787DA000404003D34069080040C37
:200F100010016126D9402E172CC0001729400104D9402E15982DD7FAB005883A003C5A0655
:200F18009080040C10003526D8C02E17D9002A17D8002785188001041CC00017002D883A34
:200F20002000371600FFDFC4D8802E1590E4703A0039883A983DD4260080024414FC5336C0
:200F2800D8C02817DC001DC49CC00C041C07C83ADCC01DC5D8C02B15003CC606D880331784
:200F3000143FFFC4043F4D0E07000404E400810E0140027429517884D9402C1501C001C45E
:200F3800DCC02D1700000306B5800204843FFC04E4007B0E18C004048C400044B50000158B
:200F4000B7000115D8C02015DC401F153C7FF60ED9801E04B80B883A9809883AD9C03C159B
:200F4800008AAD80D9C03C17103BD71ED8C02017DC401F17DD800404003FEC069080100CC3
:200F5000D800278510010E26D9402E17D8C02A17002D883A288001042CC0000B183FC90EC0
:200F5800D8802E150039883A9D84B03A103C1E1E00800044003E6C06D9002D17D9801E0444
:200F6000B80B883A008AAD80103BBF1ED8C02017DA000404D9003217D8802617D940331742
:200F68008123883A114002169100004C20000D26D9003717D94034171907883AD9001F17EE
:200F700041400015D940371721000044D8C0201541400115D9001F15014001C42901E81660
:200F780042000204D90033178121883A2085C83A8461C83A1400010E1021883A04000A0ECA
:200F8000D9001F171C07883A444000152100004444000115D8C02015D9001F15014001C425
:200F88002901FB16420002048001F7161421C83A043D160E04400404D8801F178C3EFB0EEF
:200F90000140027429517884D9402C15058001C4DCC02D170000030642000204843FFC047C
:200F98008C3EF50E18C00404108000444500001544400115D8C02015D8801F15B0BFF60EF8
:200FA000D9801E04B80B883A9809883A008AAD80103B7D1ED8C02017D8801F17DA000404F2
:200FA800003FEE069088703A203EAB1EDC401F1740800115440000158C400044D8C02015AF
:200FB000DC401F15008001C414400E1645800204003ECA060100027421117884D9002C157C
:200FB800D8802C171C07883A8C400044B0800015B4000115D8C02015DC401F15008001C418
:200FC000147EBD0ED9002D17D9801E04B80B883A008AAD80103B5C1ED8C02017DC401F17FA
:200FC800DD800404003EB506D9002D17D9801E04B80B883A008AAD80103B531ED8C020174C
:200FD000DC401F17DA000404003E8D06D9002D17D9801E04B80B883A008AAD80103B4A1E75
:200FD800D8C02017DC401F17DD800404003E8F060027883A003F4A06D9002D17D9801E0490
:200FE000B80B883A008AAD80103B3F1ED8C02017DA000404003C7B06D9402A1704E7C83A58
:200FE80007000B449804C03A05ADC83ADF002785B0ADC83A28017B1600BFDFC490A4703A65
:200FF000003B8906D9003617D9403817DA003D1500890F40DA003D171000F026D9002A1717
:200FF80005BFF7C400BFFFC48DAC703A20820026008011C4B081F726D900381790C04014BE
:20100000D8C02C1520021516DCC03817D8002905008019848881F9260080118488821C2613
:2010080000801144B081EF26D8C02A17D8802104D8800315D9403617D8802504D9002D17E3
:20101000D8800215D8802604D8C00015D880011501C00084980D883AD8C03C15DA003D15F3
:201018000084FA801021883A008019C4D8C03C17DA003D1788817126008011C4888291269B
:2010200080F9883AD9003617000D883A000F883A980B883ADA003D15008F5C00DA003D1705
:2010280010018D26D88021171700062E01000C0410C00044D8C0211511000005D880211770
:20103000173FFB361405C83AD8803315008011C4B0817626008019441442800ED8C02617A6
:2010380000801984D8C032158881FE26D8C03217D90033171901DD169480004C90022B1E23
:201040001805883A18028316D8C03217044019C4D8C02B15DF002907E001531EDF0027833A
:20104800D8802915DC802C17D8002A15003BAF06D8C02E17D9002E17D9402E1718C0001704
:201050002100011729400204D8C03615D9003815D9402E15003B5006AC400007003A280687
:201058009080100C1000A826D8C02E17002D883A1CC0000B18C00104D8C02E15003CAF0612
:20106000D9002E17D9402A17002D883A2080010424C00017283EBB0E003EF1069080040CE5
:201068001000921E9480100C90013926D9402E17D8C02F172880001729400104D9402E15C3
:2010700010C0000D0039E4069080100C10008026D8802E1714C0000F10800104D8802E15CE
:20107800982DD7FAB005883A003AF7069080100CD800278510008A1ED9002E17D9402A1734
:20108000002D883A2080010424C00017283E4B0E9D86B03AD8802E15183E4C1E0039883A9F
:201088000005883A003D40060140027429517884D9402C15D9402C171C47883A1080004422
:201090004140001544400115D8C02015D8801F15010001C420BEC81642000204003ECD06DC
:20109800D9002A17D8002785203D2D1600BFDFC490A4703A003A6106010002742111788474
:2010A000D9002C15003BEA06D9002D17D9801E04B80B883A008AAD80103A7B1ED8C0201765
:2010A800DA000404003D4106D8801F17014002740100004418C0004410800044295170045A
:2010B0004100011541400015D8C02015D8801F15010001C420805C16420002048800041E10
:2010B800D88033171000021E9080004C103BE726D9003717D8801F17D940341720C7883AD0
:2010C000108000444100011541400015D8C02015D8801F15010001C4208121164200020410
:2010C8000463C83A0440730E05800404B440860E0140027429517884D9402C15070001C472
:2010D000DCC02D1700000306420002048C7FFC04B440800E18C00404108000444500001534
:2010D80045800115D8C02015D8801F15E0BFF60ED9801E04B80B883A9809883A008AAD8007
:2010E000103A411ED8C02017D8801F17DA000404003FEE0600BFFFC4003A3F06008011C47F
:2010E8001440B816040002748411620400C000C400BFDFC4D8C0291590A4703ADF0027832E
:2010F000D8C02B15D8002A15D8003215003B0706D8C02E171CC0001718C00104D8C02E1502
:2010F800982DD7FAB005883A003A7706D8C02E17D9002F171880001718C00104D8C02E15B1
:201100001100001500395406D9002E17002D883A24C0001721000104D9002E15003C070683
:20110800D9402E17D8C02A17002D883A288001042CC0000B183DC10E003F750604000274A5
:2011100084116004003AA706D9002D17D9801E04B80B883A008AAD80103A0B1EDC4026173F
:20111800D8C02017DA000404003F9C06AC40004384000814AD4000448C403FCC8C40201C46
:201120008C7FE00400395E06D8C02E150039883A003E3506D9002D17D9801E04B80B883AB7
:20112800008AAD801039F81ED8C02017DA000404003CD0068009883ADF003D1500893D404C
:20113000D8802B15DA003D17103C200E0005883A003C1E06D9002D17D9801E04B80B883A1B
:20113800008AAD801039E81ED8C02017D8801F17DA000404D94033171080004444000015C2
:2011400028C7883A003B5B060100027421117C84D9003515003AF206013FFFC4003A0806F9
:201148000023883A003D9D06D9002D17D9801E04B80B883A008AAD801039D31ED8C02017E5
:20115000DA000404003D94060100027421117884D9002C15D9002C171C47883A10800044F2
:201158004100001544400115D8C02015D8801F15010001C420BFD71642000204003FDD0632
:20116000D9002D17D9801E04B80B883A008AAD801039BD1ED8802617D8C02017DA00040431
:20116800003E10060080004410803FCC00C0004410FA0D2600C0008410FBAF26003A6D06A2
:201170000100027421117C84D9003515003B5406D8802A1700C001841880012E1805883A7A
:20117800D8802B151000EF1604000274D8802915DCC02E15D8002A15D800321584116E047E
:201180000039883A003A80060021883A003E0706D9002D17D9801E04B80B883A008AAD8092
:201188001039991ED8802617D9403317D8C02017DA0004042885C83A003DFB069080004C55
:20119000103E8F1ED8802117003E9E061025883A0039883A00800084003FD30607000B446E
:20119800DF002785003A1B0600C00B44D8C02785D8802915DC802C17D8002A1507000B445C
:2011A000003A5E060400027484116304003F4706D9002E17D9402F17208000172100010435
:2011A800D9002E15114000150038AB06DD80261700BFFF44B0801C16D9402A172D801A1687
:2011B000DD803215003E89060100027421117884D9002C15003C9106E005883A003E7906B8
:2011B800D9002A17DF002783DCC02E15D9002915D9002B15D8002A15D8003215003A3B06B4
:2011C0009080004C0039883A1000042600800C04DC001DC4D8801DC5003B6406D8002B153A
:2011C800DC001E04003A2B068C7FFF84B5BFFFC4DD802615DC4022C5B000BF1600800AC46B
:2011D000D8802305008002441580701600800C04B5800C04D8802345DD802385D88023C4C5
:2011D800DF0022C4D8C033171739C83AD9003317E0C7883ADF003A15D8C02B1500800044A8
:2011E0001100B30ED8C02B1718C00044D8C02B151805883A1800AC16D8003215003E5D06D6
:2011E800D9002D17D9801E04B80B883A008AAD801039351EDC402617D8C02017D8801F17C1
:2011F000DA000404003ED606182B883AD8002A1500388C06D8802A17103E071EDC002A15D6
:2011F800003E0506D9002A1720C00044003E0F0601400184D9402A15003DFF06D880210420
:20120000D8800315D8802504D8800215D8802604D8800115D8802A17D9403617D9002D1762
:20120800D880001501C000C4980D883ADA003D150084FA80D8C02A17DA003D171021883A49
:2012100010F9883A8100000700800C0420805E26D8C02617E0F9883A003E0A0600C00B44EA
:2012180024E0003CD8C02905003DE906D8C0321700C07A0E00800044D90033171105883A9C
:20122000D8802B1510004E16044019C4003E2106D9002A17D8802104D8800315D900001527
:20122800D8802504D9403617D9002D17D8800215D8802604D880011501C000C4980D883A57
:20123000DA003D150084FA80D8C02A17DA003D171021883A0080118480F9883A88BFD926E4
:20123800003DE806D9002A1700C04D0E2000441E9480004C9000421E1805883A18006F16E8
:20124000D8C03217D8C02B15003E0206DF0022C4DC002A154027883AE021883AB009883A48
:2012480001400284008E1EC010800C04843FFFC4B009883A0140028480800005008E1680C2
:20125000102D883A0080024415BFF4169811883AB0800C048027883A997FFFC498BFFFC5D1
:20125800DC002A172F006D2ED9C023843CCFC83AD9002344E1CF883A0000010628800003DE
:20126000208000052100004429400044393FFB1ED880230414C5C83AD8C023441885883A6E
:20126800003F70060005883A003F0F06D8C0321718C00044D8C02B151805883A183FB20ECB
:201270000005883A003FB006D9003617000D883A000F883A980B883AD8C03C15DA003D1562
:20127800008F5C00D8C03C17DA003D17103F98260080004410C7C83AD8C02615003F9506FB
:20128000D9002A17D8C03217208000441885883AD8802B15103DBF0E0005883A003DBD0697
:201288002000201E9480004C90001E1E00800044D8802B15003DB70600800B4405ADC83AE3
:20129000D8802305003F3F060005883A003F520690A4703A903F4E26003F4A060080008428
:2012980010C5C83A003F8406D9402E17D9002E17AC4000432940001720800104D8802E152B
:2012A000D9402A15182B883A283E7B0E8C403FCC017FFFC48C40201CD9402A158C7FE00479
:2012A8000037D706D8C02A1718C00084D8C02B151805883A183D970E003FD7060005883A49
:2012B000003F8F069080004C103F821ED88021171405C83AD8803315B47EF426DD802617CE
:2012B800003F1206D8C02B03D8C027850038DF06D8C02B03D8C027850038AA06D8C02B03E0
:2012C000D8C02785003A4306D8C02B03D8C02785003AF5060005883A003D7B06D8802344C4
:2012C800003F1006D8C02B03D8C027850038FD06D8C02B03D8C02785003A9706D8C02B03C5
:2012D000D8C02785003A1806D8C02B03D8C02785003ABE060080027410990204300F883AB4
:2012D800280D883A200B883A11000017008287812880030B2AC019172A80038B2A400717D0
:2012E0002A000917DEFEE20400C10004DC011A1510BFFF4C2821883AD8CB883ADC811C15F9
:2012E800DC411B15DFC11D152025883AD881030DDAC11915DA81038DDA410715DA01091573
:2012F000DEC10015DEC10415D8C10215D8C10515D8010615008287801023883A1000041673
:2012F800D94100049009883A008684C010000D1ED881030B1080100C100003268080030BFE
:20130000108010148080030D8805883ADFC11D17DC811C17DC411B17DC011A17DEC11E0438
:20130800F800283A047FFFC4003FF10600800274DEFFFD0410990204DC4001152023883A35
:2013100011000017DC000015DFC002152821883A2000022620800E17100031268080030B61
:2013180010C0020C1009883A18000F2680C00417180015261100004C20001C1E1080008C2E
:201320001000291E808005178080021518001C260005883ADFC00217DC400117DC00001723
:20132800DEC00304F800283A2080040C10002E262080010C10001E1E80C004172080021488
:201330008080030D183FEB1E1100A00C01408004217FE826800B883A8809883A00873200A4
:201338008080030B80C00417003FE20680800517800002150085C83A80800615183FE41E57
:2013400080C0030B0005883A1900200C203FE12618C0101480C0030D00BFFFC4003FDD06DD
:201348000086C380003FCD060005883A003FD60681400C17280006268080100428800326AB
:201350008809883A0086DAC08100030B80000C1580C0041700BFF6C41108703A80000115AD
:2013580080C00015003FD5060080024488800015208010148080030D00BFFFC4003FC506C3
:20136000DEFFF204DDC00B15208004172DC00417DFC00D15DF000C15DD800A15DD400915A2
:20136800DD000815DCC00715DC800615DC400515DC00041515C07A16BDFFFFC4BDE9883AC5
:2013700028C00504A529883A1D39883A24C00504D94002159D29883AE1400017D9000015F9
:20137800A100001729400044D8C00115DD000315008E26001025883A10003026DC40011708
:201380009829883A002D883A0021883A8D400017900B883A8C400104A93FFFCC008E31C0B4
:20138800A808D43A900B883A15AD883A008E31C0A1000017B00CD43AB0FFFFCC217FFFCCC0
:201390002C21883A80C7C83A2008D43A1185883A1821D43A117FFFCC2149C83A2421883A42
:201398008008943A18FFFFCC102CD43A20C8B03AA10000158021D43AA5000104E47FE32E5E
:2013A000D8C003171880001710000C1E18BFFF049880082E18FFFF171800032600000506F1
:2013A80010C000171800031E10BFFF04BDFFFFC498BFFB36D8C000171DC00415D940021755
:2013B000D900001700889C0010002816DC40011794800044980D883A0007883A31000017B7
:2013B800894000173180010420BFFFCC10C7883A28BFFFCC1885C83A280AD43A2008D43A75
:2013C0001007D43A10BFFFCC2149C83A20C9883A200A943A8C4001042007D43A2884B03AA3
:2013C80030BFFF15E47FED2EBDC5883A1085883A9887883A1880001710000C1E18BFFF0445
:2013D0009880082E18FFFF17180003260000050610C000171800031E10BFFF04BDFFFFC4C5
:2013D80098BFFB36D8C000171DC004159005883ADFC00D17DF000C17DDC00B17DD800A176F
:2013E000DD400917DD000817DCC00717DC800617DC400517DC000417DEC00E04F800283A48
:2013E8000005883A003FF20620801017DEFFDE04DF002015DCC01B15DC801A15DC401915AC
:2013F000DC001815DFC02115DDC01F15DD801E15DD401D15DD001C15D9C003152039883A75
:2013F8003023883A2825883ADC0024173027883A100008262180111700C00044100B883A99
:201400001986983A1180011510C0021500880E40E000101588002E1680000015889FFC2C42
:2014080000DFFC3410C01C26000D883A000F883A9009883A980B883A008F5C0010002B1EFF
:20141000D9C023170080004438800015D880251710019E26D8C025170080027410917044D0
:201418001880001510BFFFC4DFC02117DF002017DDC01F17DD801E17DD401D17DD001C17C2
:20142000DCC01B17DC801A17DC401917DC001817DEC02204F800283AD8C023170089C3C4FA
:2014280018800015900177260080027410918404D9002517203FEC2610C000C71801781EDE
:2014300010C000C4D980251730C00015003FE60604E000349CFFFFC4008000448CE6703AED
:20143800808000159823883A003FCC06D8800204D8800015D9C00104900B883A980D883AC4
:20144000E009883A8820D53A0088D8C0D88009158001651EDD800217DC000117008008049A
:20144800B421883A80C10C8410C2D10E008010048101048410C7C83A9108D83A88E2983A0D
:201450002448B03A0090ADC0017F8434018000441009883A194B883A843FFFC4D980111526
:20145800000D883A01CFFE34009008400198DBF401CFF4F43190D84439E1E9C41009883A2C
:20146000180B883A008F818001A2D87401CFF1F431B22CC439E28A04180B883A1009883A17
:20146800008E34408009883A1029883A1823883A0090A000019427F401CFF4F4319E7EC476
:2014700039D104C41009883A180B883A008F8180100D883A180F883AA009883A880B883AB2
:20147800008E34401009883A180B883A1029883A1823883A00909800000D883A000F883AD2
:20148000A009883A880B883AD8800515008F724010028716D8C005170080058410C27536F0
:20148800180490FA00C0027418D1A0041885883A1100001711400117900D883A980F883A23
:20149000008F648000828D0ED9000517D8000E15213FFFC4D9000515B42DC83AB5BFFFC48C
:20149800B0026F16D8000815D9C0051738026416B1ED883AD9C00D15D8000A15D98003171A
:2014A0000080024411811436008001441184E10E31BFFF04D98003150023883AD980031785
:2014A800008000C4308367261183410ED9C003170080010438827C26008001443884C41EC6
:2014B00000800044D8800B15D8C00517D90022171907883A19800044D8C00C15D98006152E
:2014B8000183A40ED98006173021883AE0001115008005C41184C92E00C0004400800104F1
:2014C0001085883A11000504180B883A18C00044313FFB2EE1401115E009883A008803C0C4
:2014C800D8800715E0801015008003841400F7368800F626D9C0051701C39A0E388003CC77
:2014D000100490FA382BD13A00C0027418D1A0041885883AA8C0040C1240001712000117C3
:2014D8001803792600800274109196041180081711C009179009883A980B883ADA001715A2
:2014E000DA401615008EBF00DA001717DA401617AD4003CC040000C41023883A1829883A8F
:2014E800A800112605C00274BDD196044805883A4007883AA980004C1009883AA82BD07A1D
:2014F000180B883A30000426B9800017B9C0011784000044008F8180BDC00204A83FF51EE7
:2014F8001013883A1811883A480D883A400F883A8809883AA00B883A008EBF00D8800F1553
:20150000D8C01015D8C00E1718000626D9000F17D9401017000D883A01CFFC34008F7240BE
:2015080010040B168009883A0090A000D9800F17D9C010171009883A180B883A008F818084
:20151000000D883A01D007341009883A180B883A008E34401021883AD8800617047F3034CF
:201518001C63883A10031826D8C00517DB000617D8C01315D9000B1720038F2660BFFFC400
:20152000100490FA00C0027418D1A0041885883A1180001711C00117D88007170009883A19
:20152800014FF834DB00161515C00044008EBF00800D883A880F883A1009883A180B883A53
:2015300000900840D9401017D9000F17102B883AD8C01215009098001009883A1029883ACA
:201538000090A000D9000F17D9401017100D883A180F883A009008401823883AD8C00717D1
:20154000D9401217A2000C041021883A1A000005800D883A880F883AA809883A4029883A3F
:20154800008F648000841D16800D883A880F883A0009883A014FFC3400900840D94012174C
:20155000100D883A180F883AA809883A008F6480DB00161700840E160080004413006B0ECD
:20155800D9000717DD800F15DCC010152319883ADCC01217602D883ADC801215B825883A06
:201560000000090600900840A80D883A980F883A1009883A180B883A008F72401003E81692
:20156800B825883ABD83E926A809883A980B883A000D883A01D00934008F8180000D883A61
:2015700001D009348009883A880B883A102B883A1827883A008F8180180B883A1009883A5F
:201578001821883A1023883A009098001009883A1029883A0090A0008809883A800B883A95
:20158000100D883A180F883A00900840A5000C04A80D883A980F883A1009883A180B883A56
:20158800950000051021883A1823883A008F7240BDC00044800D883A880F883A0009883A44
:20159000014FFC34103FCF0ED8C01317D8C00515D9400917E009883A00880E40D90005176C
:20159800D9802317D9C02517B800000520800044308000153802AA263DC00015D8800717D3
:2015A000003E79060080043410BFFFC488A2703A883E851E0080027410918104003E840603
:2015A80010C00204003E870601400434297FFFC4994A703A9009883A843F0044294FFC3407
:2015B000DD800217D8001115003EA5060080027410917004003E6406E0001115000B883A38
:2015B800E009883A008803C001BFFFC401C00044D8800715D9800C15E0801015D800031532
:2015C000D9C00B15D9800615D8002215D880011710008916D900051700C0038419008616BF
:2015C800200490FA00C00274D980221718D1A0041885883A14000017144001173001631660
:2015D000800D883A880F883A9009883A980B883A008EBF00180B883A1009883A009098005E
:2015D8001009883A102B883A0090A000800D883A880F883A1009883A180B883A008F8180F3
:2015E000100D883A180F883A9009883A980B883A00900840D9C007171009883AA8800C04C1
:2015E800388000053DC00044D9C0061701800044180B883A2005883A39803826000D883AB8
:2015F00001D00934008F8180000D883A000F883A1009883A180B883A1025883A1827883AE5
:2015F800008F5C00103F9A26D9C00617D8C00717B829883A38BFFFC418AD883A00000A0679
:20160000008F8180000D883A000F883A1009883A180B883A1025883A1827883AB829883A3F
:20160800008F5C00103F8A26800D883A880F883A9009883A980B883A008EBF00180B883A3E
:201610001009883A009098001009883A102B883A0090A000800D883A880F883A1009883A2C
:20161800180B883A008F8180100D883A180F883A9009883A980B883A00900840AA000C0423
:20162000A2000005000D883A01D009341009883A180B883AA5C00044B53FD91E100D883AF3
:20162800180F883A1009883A180B883A008E3440100D883A180F883A8009883A880B883A8F
:201630001027883A1825883A008F724010000816980D883A900F883A8009883A880B883ACB
:20163800008F5C00103F5A1EAD40004CA83F5826BD3FFFC3B8BFFFC41007883A01400E44DE
:20164000D98007170000050618FFFFC4118247261D000003102F883A10BFFFC4A1003FCCCF
:201648002100201C213FE004217FF726A200004412000005003F4606D9000B172000C82693
:20165000D980031700C000441980F90ED8800617D8C00A17157FFFC41D41F3161D6BC83AED
:20165800D9C006173802AA16DD000817D8800617D8C0081701400044E009883A1887883A09
:20166000D8C00815B0AD883A008847001023883AA00008260580070EA005883AB500B9167F
:20166800D9000817A0A9C83AB0ADC83A2089C83AD9000815D9800A170181810ED9C00B17D9
:201670003800B326A800B226880B883AA80D883AE009883A00887380D9800917100B883A81
:20167800E009883A1023883A00884AC01021883AD8800A17D9400917E009883A1545C83A74
:20168000D8800A1500880E40D8C00A1718009F1E05C00044E009883AB80B883A0088470067
:20168800D9000D17102B883A2000CE26200D883A100B883AE009883A00887380D9800317CF
:20169000102B883AB981810E0027883AA880041705C00804108001041085883A1085883A34
:20169800A885883A1100001700883580B885C83A1585883A108007CC1000B32600C008042B
:2016A0001887C83A0100010420C2CD0E00C007041885C83AD8C00817A0A9883AB0AD883A7B
:2016A8001887883AD8C00815D98008170180040E800B883AE009883A008887801021883A87
:2016B0000580050EA80B883AB00D883AE009883A00888780102B883AD9C00E173801211E21
:2016B800D98006170181380ED8C00B171800AB1EDC800717DCC006179029883A0000020683
:2016C000008810C01021883AA80B883A8009883A0084D80010800C04908000059480004496
:2016C8009507C83A000F883A01800284800B883AE009883A1CFFF2161011883AD880061719
:2016D0000082370ED90007170025883A20AF883A01800044800B883AE009883ADA00171501
:2016D80000888780A80B883A1009883AD880091500889C00DA0017170081800EB93FFFC3A8
:2016E000B8BFFFC41007883A01800E44D9C007170000050618FFFFC411C123261900000331
:2016E800102F883A10BFFFC421403FCC2940201C297FE00429BFF726210000441100000532
:2016F000A80B883AE009883A00880E40883EA0269000042694400326900B883AE009883A99
:2016F80000880E40880B883AE009883A00880E40003E970601800044D9800E15003D960631
:20170000D8800817D8C00517D8000D1510C5C83A00C9C83AD8800815D9000A15003D9706BB
:2017080005ADC83ADD800815002D883A003D8E06D90005170090A000100D883A180F883AE6
:20171000A009883A880B883A008F5C00103D7126D9C0051739FFFFC4D9C00515003D6D0617
:20171800DD400A17DD0008170023883A003F480610E3C83A9448983A003D3206D8000E15F2
:20172000003D7506B005883A003F4506DC000915D9800A17D9400917E009883A008873801D
:201728001021883A003F5A0601C00044D9C00B15D88022170081280E100D883A1021883A37
:20173000D8800C15D8800615003D8806D880061700BE9B1610010F1E880B883A000D883A9C
:2017380001D005348009883A008F8180900D883A980F883A1009883A180B883A008F6480B1
:20174000002B883A0023883A1000BF16D9802217DDC00717018C303AD9800515A80B883AA6
:20174800E009883A00880E40883E4926003FAD06D9C011173801BC2610810CC4DD400A175E
:20175000DD000817003F0A0600800704D9000817A0A9883AB0AD883A2089883AD900081520
:20175800003F5106D8C00317B8C1FC0E0027883AB805883A003F3E06880B883AE009883ABB
:20176000000F883A01800284008810C0D9000C171023883A0102040ED90006150500050E27
:20176800880B883AA00D883AE009883A008887801023883A9801241E8829883AD90006172A
:20177000DCC007179480004C20BFFFC49885883AD8800415DC800615A80B883A8009883A16
:201778000084D800880B883A8009883A102F883A00889C00A80B883AA00D883AE009883AA1
:20178000102D883A0088A2001007883A10800317BC800C04180B883A10004E1E8009883AA5
:20178800D8C0161500889C00D8C01617E009883AD8801615180B883A00880E40D880161727
:201790001000041ED98003173000021ED8C0061718003726B0002016B000041ED90003176F
:201798002000021ED8C0061718001B2600810716D8C004179D8000449C800005B02F883A6F
:2017A00098C10626800B883A000F883A01800284E009883A008810C01021883A000F883AB8
:2017A80001800284880B883AE009883A8D002526008810C0A00B883A000F883A01800284A5
:2017B000E009883A1023883A008810C01029883AB027883A003FC0069011883A00800E0E89
:2017B800800B883A01800044E009883ADA00171500888780A80B883A1009883A1021883A7C
:2017C00000889C00DA0017170081960E00800E4440817026BA000C448825883A9DC0004475
:2017C8009A000005A023883ADC000915003F240600800E449011883A9081662605BFF516D9
:2017D000003FF506008810C01023883A1029883A003FDF06E009883A00880E40008000440E
:2017D800003FBC06A80B883A8009883A00889C00103EDB0E800B883A000F883A01800284B0
:2017E000E009883A008810C01021883AD8800517D8C00B1710BFFFC4D8800515183F761ED6
:2017E800D9000C170101730ED9000615003ED006008000843081861ED8000B15003F3C0688
:2017F000DC000917003E9206D9C003170080008411FEC50ED900061720013C1EA80B883A88
:2017F800000F883A01800144E009883A008810C0100B883A8009883A102B883A00889C00EE
:20180000DC00091500BF410ED9C0071700800C4438800005D88005173DC0004410800044F3
:20180800D8800515003F3D06D9800517D9C0071700800C4431800044D980051538800005AB
:20181000003EDF06D8000B15003C9F06903E7E1E0080043410BFFFC49884703A1000EA1E2A
:201818009CDFFC2C9800E826D9C00817B580004404C0004439C00044D9C00815D8800D17BF
:20182000103E721E00800044003E79068009883A0090A000D9800F17D9C010171009883AB4
:20182800180B883A008F8180000D883A01D007341009883A180B883A008E3440047F3034A7
:201830001021883A1C63883AD9000F17D9401017000D883A01D0053400900840800D883A25
:20183800880F883A1009883A180B883A102B883A1829883A008F648000806C1689E0003C5D
:20184000800D883AA809883AA00B883A008F7240103D7E0E002B883A0023883A003EFB062E
:20184800D8800717003BD006D9000A17D9800D17DD400A15A905C83A308D883AD9800D159C
:20185000002B883A003E06069023883A9829883A04000084003C920604000044DC000C15A8
:20185800DC000615DC002215E0001115000B883A003C69063021883A003FFB061000021E65
:201860004200004C403E7D1E01000C0400000106102F883AB8BFFFC410C00007193FFC261D
:20186800003E8706D880051700A3C83A8800A426888003CC100490FA00C0027418D1A004F2
:201870001885883A1180001711C001179009883A980B883A8823D13A008F8180D8800F15E6
:20187800D8C010158800E82605000274A5119604040000848980004C1009883A8823D07A85
:20188000180B883A30000426A1800017A1C0011784000044008F8180A5000204883FF51E7B
:20188800D8800F15D8C01015003C760600C00C0410C00005D8C00517BD3FFFC318C000441C
:20189000D8C00515003DB90689400117E009883A008803C0898004178940030411000304A7
:2018980031800084318D883A318D883A1027883A0087DCC001800044980B883AE009883A0A
:2018A000008887801029883A003ECC0600800E449080902692000044003F1F069011883A59
:2018A8008825883AA023883A003E2906002B883A0023883A003F540661BFFFC4300490FAB3
:2018B00000C0027418D1A0041885883A1100001711400117D8800717880F883AD980121516
:2018B800800D883ADB00161515C00044008F8180D9401017D9000F17D8C01515D880141590
:2018C000009098001009883A1021883A0090A000D9000F17D9401017100D883A180F883ADB
:2018C800009008401829883AD8C0071784000C041023883A1C000005DB00161700800044F9
:2018D00060802226D9C007178805883AB82B883A3B19883A6023883AA007883ADC800F15E1
:2018D800000D883A01D009341009883A180B883A008F8180180B883A1009883A1829883A00
:2018E0001025883A009098001009883A1021883A0090A000100D883A180F883A9009883AA8
:2018E800A00B883A84000C0400900840AD400044AC3FFFC5AC7FEA1E1023883AD88012177E
:2018F000DC800F171829883AB8AF883AD9001417D9401517000D883A01CFF834008E344014
:2018F800880D883AA00F883A1009883A180B883A008F724010003E0ED9001317BD3FFFC3EA
:20190000D9000515003D3B060027883A003F1B06D880081711E9C83A0005883A003D54063C
:2019080000800044003DC706D8C0021700800D84DD400A1710C5C83ADD000817003D4C068F
:20191000DC800F15DCC0101504000084003BED06D9000617203F0D26D9800C1701BCAB0E46
:20191800D9401017D9000F17000D883A01D00934008F818081000044D8800F15D8C0101505
:201920000090A000D9800F17D9C010171009883A180B883A008F818001D00734000D883A0D
:201928001009883A180B883A008E3440D9C00517047F30341021883A39FFFFC4D9C0131592
:201930001C63883ADB000C17003BEA06DC000915003E0E0601000E448825883A9DC000447E
:2019380099000005A023883ADC000915003DA406D9801417D9C015170009883A014FF834FB
:2019400000900840880D883AA00F883A1009883A180B883A008F648000BC7C0E01000C045D
:2019480000000106102F883AB8BFFFC410C00007193FFC26D9801317D9800515003C440670
:20195000D9801317D9800515003CEA06DD800F17DCC01017DC801217003C6C06903E031EED
:20195800003EBB06103E6C1E4080004C103E6A26003E6606D8C003170080008410C029163F
:20196000D9000C17003E880604000084003B9D06D9001317D9000515003CD606D8801317A9
:20196800D8800515003C2A06D98003170080008411801516D9C00C17D9C00615003DF706A4
:20197000193D392600C00F041885C83A003DDF06E009883AE0001115000B883A008803C045
:20197800D8800715D8C0071700BFFFC401000044D8800C15E0C01015D9000B15D8800615B4
:20198000D8002215003C4106D8C00C17D8C00615003E700604400044003B2006000B883ADD
:20198800003B3D06D8800C17D8800615003E69062880030BDEFFFB04DCC00315DC400115AE
:20199000DFC00415DC800215DC00001510C0020C2823883A2027883A1800311E28C00117C0
:20199800108200142880030D00C04B0E8A000A17400023269C00001710C4000C9800001544
:2019A000180048268980141710C0010C1800062688C0011788800C1730CDC83A100002268A
:2019A80088800F17308DC83A89400717000F883A9809883A403EE83A00FFFFC410C044267B
:2019B00088C0030B8900041788000115197DFFCC8940030D8900001518C4000C18002C1E5D
:2019B80089400C179C0000152800052688801004288002269809883A0086DAC088000C1507
:2019C0000005883ADFC00417DCC00317DC800217DC400117DC000017DEC00504F800283A33
:2019C8002C800417903FF6262C000017108000CC2C80001584A1C83A1000131E28800517C1
:2019D0008880021504000316003FED0690A5883A043FEB0E8880091789400717800F883AF6
:2019D800900D883A9809883A103EE83A80A1C83A00BFF61688C0030B00BFFFC418C01014FB
:2019E00088C0030D003FDF060005883A003FEC0688801415003FD20628C00F1700FFB31655
:2019E800003FD70689400717000D883A01C000449809883A403EE83A100D883A00BFFFC4A4
:2019F000308014268880030B8A000A17003FAE0698C00017183FBA26010007441900062602
:2019F800010005841900042688C0030B18C0101488C0030D003FC3068880030B88C00417D7
:201A00008800011510BDFFCC8880030D88C00015003FB30698800017103FEA2600C007448A
:201A080010C0022600C0058410C0031E9C0000150005883A003FB30688C0030B3005883ACF
:201A100018C0101488C0030D003FAE06DEFFFD04DC000115DFC002152021883A200002269E
:201A180020800E1710000C262880030F1000051E0005883ADFC00217DC000117DEC00304A2
:201A2000F800283A8009883ADFC00217DC000117DEC0030400866301D94000150086C380CF
:201A2800D9400017003FF006200005260080027410990204200B883A11000017008684C169
:201A300000800274109901041100001701400234295A1304008718010005883AF800283AF8
:201A3800014002742970990400871801DEFFF70400C00234DFC00815DDC00715DD80061546
:201A4000DD400515DD000415DCC00315DC800215DC400115DC00001518DA380424000117A5
