:020000020000FC
:200000001001483A0084001400BFFD1610BFF8040840911400400134000000000800683A0C
:20000400DFC00015DEFFED04D8800315D8400215D9000515D8C00415D9800715D94006156E
:20000800000B307AD9C00815DA400A15DA000915DAC00C15DA800B15DB400E15DB000D15CC
:20000C00DBC01015DB800F15EBFFFF04D94011150009313ADBC01215100003262880004C06
:2000100000400FC020000226DF40121500000706E93FFF04E8BFFF171000021E00401D00B1
:20001400DBC01215EBFFFF04DF401217D94011172801707ADFC00017D8800317D840021728
:20001800D9000517D8C00417D9800717D9400617DA000917D9C00817DA800B17DA400A170A
:20001C00DB000D17DAC00C17DB800F17DB400E17DEC01304DBC01017DEFFF904EF80083A45
:20002000DF000515DFC006150001883ADF000504E0BFFE150005313AE0BFFB15E0BFFE17DD
:2000240000800044E03FFD15E0FFFB17E0BFFC151884703AE0BFFC1700800134100014262F
:20002800E0FFFD17108B200410C5883A180690FA0080013410C00017E13FFD17108B200438
:20002C001105883A200890FA1080001710800104183EE83A1009883A0005313A0001883A68
:20003000E0BFFF17E0BFFF15E0BFFC1700000706E0BFFC151085883A10800044E0BFFD17FB
:20003400003FE106E0BFFD15E0BFFB17E0BFFB150001883A103FDB1EE037883A0001883ACE
:20003800DF000017DFC00117F800283ADEC00204DFC00415DEFFFB04DF000304DF0003158C
:20003C00000531FAE13FFF15E0BFFD17E0BFFD151004D0BA10801F0C0005333AE0BFFD1560
:20004000D0A0CA17E0BFFE15D0A0CA1710000726E1BFFE17E0FFFD171809883AE17FFF170E
:2000440000000206103EE83A0005883A003DA03ADFC00117E037883ADEC00204DF0000171C
:2000480000820014F800283A10BFF8041000003306C0017400BFFD1606800134DEC0001420
:20004C0000800134D6AA551400C00134108B181410C0032618CB6014108001041000001530
:200050000040A04010FFFD36003FFF060040A880DF000115DEFFFE04E13FFF15DF00010496
:20005400008000F40007883A10C0003510880004008000F400C1000410C0003510880304D1
:20005800008000F400C0C00410C0003510880404008000F40007883A10C000351088050408
:20005C00008000F40007883A10C0003510880604008000F400C03FC410C0003510880704C1
:20006000008000F40007883A10C0003510880804008000F40007883A10C0003510880904B3
:20006400008000F40007883A10C0003510880A04008000F40007883A10C0003510880D04A9
:20006800008000F40007883A10C0003510880E04008000F40007883A10C0003510880F049F
:20006C001004C03AE0BFFF17008000F410C03FCC10C0003510880004E037883A0001883A25
:20007000DEC00104DF000017DEFFFA04F800283ADF000415DFC00515E13FFC15DF000404D9
:20007400E1BFFE15E17FFD150007883AE1FFFF1510880004008000F4010000F410C0003580
:200078000040B0402103500410800524E0BFFC171007883A10800A0410880004008000F4CE
:20007C00E0FFFD171885883A18C03FCC1806C03AE0BFFD1710C00035E0BFFC171000122665
:200080001080080410800524008000F41007883A1885883A1088000410C00035E0FFFE17CA
:2000840010800524E0BFFC171007883A1080090410880004008000F4E0FFFF171885883A17
:2000880000C0004410C0003510880004008000F40001883A10C00035DFC00117E037883AE7
:20008C00DEC00204DF000017DEFFFB04F800283ADF000404DF000415E17FFD15E13FFC1502
:20009000E1FFFF15E1BFFE1510800524E0BFFC171007883A1080080410880004008000F4B9
:20009400E0FFFE171885883AE0BFFC1710C000351080090410800524008000F41007883A9F
:200098001885883A1088000410C00035E0FFFF17E037883A0001883ADEC00104DF0000171E
:20009C00DEFFFB04F800283ADF000315DFC0041500800044DF000304E03FFE15E0BFFD15D2
:2000A000E0BFFF150080004421097F0401000134E13FFD17004085C001000134004029008E
:2000A400004085C0210982042131B00401000BB4010001340040B040004085C021098704A1
:2000A800000D883A000F883AE13FFE1701400044000F883A004038C0000B883A000D883A39
:2000AC00004038C0E13FFF17008000F400C0438410C00035109C0304008000F400C03204A9
:2000B00010C00035109C0404008000F400C0004410C00035109C0004E037883A0005883AAA
:2000B400DF000017DFC00117F800283ADEC00204DFC00915DEFFF604DF000804DF00081506
:2000B800E0BFFB150080004400800044E03FFC1500800084E0BFFD1501000134E0BFFE1524
:2000BC00004085C021097F04008000F400C0004410C0003510980004008000F400C075849C
:2000C00010C00035109C0304008000F400C0640410C00035109C0404008000F400C000449B
:2000C40010C00035109C000400402900E13FFB17E0BFF8150080004400000B06E03FF9151E
:2000C800E0FFF817008C0004E0BFF81710C00035E0BFF8151085883A0040B0400113880414
:2000CC0010800044E0BFF917E0BFF917E0BFF915103FF21E10800290E0BFF8150080800404
:2000D00000000B06E03FF915E0FFF817008C0004E0BFF81710C00035E0BFF8151005D07A96
:2000D4000040B0400113880410800044E0BFF917E0BFF917E0BFF915103FF21E10800290DC
:2000D800008C00040007883A0100013410C00035004085C0210982042131B00401000BB479
:2000DC00010001340040B040004085C021099004000D883A000F883AE13FFC170140004403
:2000E00001001334004038C00040B0402112D004210994040100013401C00284004085C085
:2000E4000140004401800284004038C0E13FFD172112D00401001334010001340040B0404F
:2000E800004085C02109980401804B0401C04B04E13FFE170140004400800044004038C017
:2000EC0000800044E0BFFA15E1FFFF17E0BFFF1501400044E1BFFA17004046C0E13FFD1729
:2000F0000040B0400101F40410800044E0BFFA17E0BFFA17E0BFFA15103FF31E1080645040
:2000F400E0BFFA1500800044DEFFFD04003FF006DF000115DFC0021500404E40DF0001040A
:2000F800E0BFFF17E0BFFF15DFC00117E037883ADEC00204DF000017DEFFFD04F800283A1E
:2000FC002021883ADC000015DFC002152809883A2823883ADC400115814002170040870067
:200100002102230401000134100F883A290001158009883A880D883A00FFFFC4004088C053
:200104008140021710C0092601C000440180013431899C0428800117103EE83A8009883A72
:200108000085C83A10BFFFE0DC400117DFC00217DEC00304DC00001700800134F800283A0F
:20010C00200B883A108A560400407DC11100001710C000072005883A10800044180002267A
:200110001105C83A003FFC062880000BF800283A100021261080020CDEFFFA042880008F62
:20011400DFC00515DC000015DCC00315DD000415DC400115DC800215100012162821883A8F
:200118003025883A2027883A050100043823883A880F883A04400B0E01C10004A440010E11
:20011C00900D883A8140008F004094409809883A88A3C83A0080050E003FF40690A5883AAD
:20012000000007060005883A108010148080000B00BFFFC48080000D00BFFFC40000020613
:20012400DFC00517F800283ADCC00317DD000417DC400117DC800217DEC00604DC000017B4
:20012800DEFFFD04F800283A04000134DC000015840B1804DC4001152809883A2023883A80
:20012C00380D883A300B883A80000015DFC0021500FFFFC40040B70080C0001710C0031E63
:2001300088C0001518000126DC400117DFC00217DEC00304DC000017DEFFFC04F800283A58
:20013400DF000304DF000315E17FFE15E13FFD15E0FFFE17E1BFFF1518800C26E0BFFD1704
:20013800E0BFFE1700000806E0FFFE1510C0010419000104E0FFFD1718C00017E13FFD15EC
:20013C00E0FFFE1710C0001518BFF51EE0BFFF17E037883A0001883ADEC00104DF000017F6
:20014000DEFFFE04F800283ADF000015DFC0011501800134D839883A01400134318A60049F
:20014400010001342949A804004099C0210A60043180910401800134294008040140013438
:20014800210008040100013401800134004099C0014001343189A8040100013429497F04DE
:20014C00004099C021097F0400414CC000412B80E037883A0001883ADF000017DFC00117CB
:20015000F800283ADEC00204DFC00215DEFFFD04DF000104DF0001150040C9C00009883A90
:200154000040CD400001883A31899D040180013429499D040140013421099D0401000134E0
:20015800004140C00041864021051B0401000134D0A0C41700420C80D120C617D0E0C51751
:20015C00180B883A200D883A00407AC01009883A01000044E0BFFF15E13FFF1700411E804D
:20016000DEFFFD0400420DC0DF000115DFC00215E13FFF15DF00010400410540E13FFF1713
:20016400DFC00117E037883ADEC00204DF000017DEFFFE04F800283ADF000015DFC001156F
:20016800D0A00717D839883AD0A007171000032600000106103EE83AE037883AD0A0C304C8
:20016C00DF000017DFC00117F800283ADEC00204DFC00615DEFFF904DF000504DF00051553
:20017000E17FFE15E13FFD15E0BFFD17E1BFFF15E0BFFD17100006160080013410C00324D8
:200174001885883A1089F5040005883A00000106E0BFFB17E0BFFB15E0BFFB171000212644
:20017800108000CC10800217E0BFFB17100018261080061710800017E0BFFB171000142614
:20017C001080061710800017180D883AE0FFFF17E13FFB17E17FFE17E0BFFC15103EE83A6C
:200180001000070EE0BFFC171007883A0040B3400085C83AE0BFFC1700BFFFC41880001514
:20018400E0BFFC1700000C060040B34000000A06008003441007883A0000040618800015FD
:200188001007883A0040B3401880001500801444E037883A00BFFFC4DF000017DFC00117BE
:20018C00F800283ADEC00204DFC00215DEFFFD04DF000104DF000115D1600404E13FFF157B
:2001900000413680E13FFF17DFC00117E037883ADEC00204DF000017DEFFFD04F800283AC0
:20019400DF000115DFC00215E13FFF15DF000104008000440041D3C00001883A1001703A72
:20019800DFC00117E037883ADEC00204DF000017DEFFFE04F800283ADF000015DFC001153B
:20019C0001C0FA04D839883A000B883A000D883A0040FD80010408042109E0040100013403
:2001A0000001883A0040C680E037883A0001883ADF000017DFC00117F800283ADEC00204AF
:2001A400DFC00515DEFFFA04DF000404DF000415E17FFE15E13FFD15E0BFFD17E1BFFF15BC
:2001A800E0BFFC151080001710C00A04E0BFFC1710800217E0BFFD17E1BFFF17100F883A5D
:2001AC001809883AE17FFE17E037883A0040DE00DF000017DFC00117F800283ADEC0020439
:2001B000DFC00515DEFFFA04DF000404DF000415E17FFE15E13FFD15E0BFFD17E1BFFF15B0
:2001B400E0BFFC151080001710C00A04E0BFFC1710800217E0BFFD17E1BFFF17100F883A51
:2001B8001809883AE17FFE17E037883A0040ECC0DF000017DFC00117F800283ADEC002045F
:2001BC00DF000815DEFFF704E13FFC15DF000804E1BFFE15E17FFD15E0BFFC17E1FFFF1568
:2001C000E0BFF91510800017E0BFF815E0BFFD17E0FFFD17E0BFFE17E0BFFA151885883AB8
:2001C400E0BFF91700001206E0BFFB151080003710A0000CE0BFFB17E0BFF8171000062687
:2001C800E0FFF81510C0004410C00005E0FFFB17E0FFF817000006061880071EE0BFFD17E7
:2001CC001090000CE0BFFF17E0FFF8171000061E18BFEB36E0BFFA170001883A000003061C
:2001D0000001883A00000106E0BFFD17E0FFF817E0FFF817188004261885C83AE0BFFD17A2
:2001D400E0BFFF1700000606100002261090000C0000010600BFFD44E037883A00BFFEC405
:2001D800DEC00104DF000017DEFFF904F800283ADF000604DF000615E17FFD15E13FFC15B4
:2001DC00E1FFFF15E1BFFE1510800017E0BFFC17E0BFFE17E0BFFA151885883AE0FFFD174F
:2001E00000000E06E0BFFB1510800104E0BFFA1710BFFFEC10800037E0FFFA171000092647
:2001E40011000044E0BFFD1710800003E13FFD151080201C10803FCC1880003510BFE00447
:2001E800E0BFFB17E0FFFD17E0BFFE1718BFEF36DF000017E037883AF800283ADEC00104D7
:2001EC00DFC00515DEFFFA04DF000404DF0004150007883AE13FFF1510C00035E0BFFF17C9
:2001F00010800104E0BFFF170005303A10800037E0FFFD17E0BFFD151884703A00BFFF8443
:2001F400E0BFFD171001703A0041C340E0BFFC15E0BFFE15E0BFFC171001703AE0BFFE17B6
:2001F800E037883A0001883ADF000017DFC00117F800283ADEC00204DFC00715DEFFF8040C
:2001FC00DF000604DF000615E17FFD15E13FFC15E1FFFF15E1BFFE15E0BFFB15E0BFFF1752
:200200001000021ED0A0C817D0A0C815E0BFFB1710800104E0BFFC1710C0003500C001C490
:20020400E1FFFC17D80000153183D80401800134E13FFD17E17FFE170001883A00415000B7
:20020800DFC00117E037883ADEC00204DF000017DEFFFA04F800283ADF000415DFC00515C6
:20020C00E13FFF15DF000404E0BFFD15008000C4008003F4E0FFFD171885383A1090900415
:200210000100BEF4100B883A004250C0213C200401200034100B883A004250C0213FFFC4C4
:20021400E13FFF17100B883AE0BFFE15004250C010002A26E0BFFE1700001706E03FFC1552
:2002180010BFFFC400A00034103FFE1E10BFFFC4008003F4E0FFFD171885383A10909004B6
:20021C000100BEF4100B883A004250C0213C200401200034100B883A004250C0213FFFC4B8
:20022000E0BFFF171007883AE0BFFF1510C5C83A10800044E0BFFC17E0FFFC17E0BFFC157E
:2002240018BFE616E0BFFE17008003F4E0FFFD171885383A109090040100BEF4100B883AF6
:20022800004250C0213C2004E0BFFF171007883A10BFFFC41885383A00000D06103FFE1E36
:20022C00008003F4E0FFFD171885383A109090040100BEF4100B883A004250C0213C2004A2
:20023000E0BFFF171007883A10BFFFC41885383A0005883A00BFFE16DFC00117E037883A55
:20023400DEC00204DF000017DEFFFE04F800283ADF000015DFC00115D0A00717D839883ACD
:20023800D0A007171000032600000106103EE83AE037883AD0A0C304DF000017DFC00117AB
:20023C00F800283ADEC00204DFC00415DEFFFB04DF000304DF000315E0BFFF17E13FFF154A
:20024000E0BFFF17100006160080013410C003241885883A1089F5040005883A0000010652
:20024400E0BFFD17E0BFFD15E0BFFD17100019261080041710800017E0BFFD1710000626F3
:200248001080041710800017103EE83AE13FFD170005883A00000106E13FFF17E0BFFE15EA
:20024C00E0BFFE170041B34000411AC01000070EE0BFFE171007883A188000150085C83AA9
:200250000000070600BFFFC4000005060005883A1007883A00411AC01880001500801444B4
:20025400E037883A00BFFFC4DF000017DFC00117F800283ADEC00204DF000115DEFFFE04B0
:20025800E03FFF15DF000104E0BFFF1700000506E0BFFF171000003BE0BFFF151080080460
:20025C0010820030E0BFFF170001883A103FF81EDF000017E037883AF800283ADEC0010417
:20026000DF000315DEFFFC04E13FFD15DF000304E1BFFF15E17FFE15E037883AE0BFFF17DD
:20026400DEC00104DF000017DEFFFE04F800283ADF000015DFC00115D0A00717D839883A9E
:20026800D0A007171000032600000106103EE83AE037883AD0A0C304DF000017DFC001177B
:20026C00F800283ADEC00204DFC00515DEFFFA04DF000404DF000415E17FFF15E13FFE155A
:2002700010000326E0BFFE1710800217E0BFFE17004132C01000061E008005841007883ADB
:2002740000BFFA8418800015E0BFFE1700001306E0FFFC15E0FFFF17E0BFFD17E0BFFD156A
:2002780010C00115E0FFFC1710C00017E0BFFC1710C00015E0BFFD1710800017E0BFFC1704
:20027C0010C00115E0FFFD17E0FFFD17E0BFFC170005883A10C00015DFC00117E037883AA8
:20028000DEC00204DF000017DEFFFD04F800283ADF000115DFC0021500800134DF00010448
:20028400E0BFFF1510897E04E0BFFF1700000606103EE83A1080001710BFFF04E0BFFF172D
:20028800E0FFFF17E0BFFF1510897F04008001340001883A18BFF62EDFC00117E037883A8F
:20028C00DEC00204DF000017DEFFFD04F800283ADF000115DFC0021500800134DF0001043C
:20029000E0BFFF1510897E04E0BFFF1700000606103EE83A1080001710BFFF04E0BFFF1721
:20029400E0FFFF17E0BFFF1510897F04008001340001883A18BFF62EDFC00117E037883A83
:20029800DEC00204DF000017DEFFFE04F800283ADF000015DFC0011501440004D839883AAE
:20029C000041F9C00009883AE037883A0001883ADF000017DFC00117F800283ADEC0020436
:2002A000DFC00615DEFFF904DF000504DF000515E17FFD15E13FFC15E1FFFF15E1BFFE157F
:2002A400D8800015E0800217E1BFFE17E1FFFF17E13FFC17E17FFD17E037883A00416B007D
:2002A800DF000017DFC00117F800283ADEC00204DF000615DEFFF904E13FFE15DF0006049B
:2002AC00E0BFFF17E17FFF150005303AE0BFFA15E0FFFB17E0BFFB151884703A00BFFF84C4
:2002B000E0BFFB171001703A00C00044E0BFFC151884983AE0BFFA17D0A0C7171007883AC9
:2002B400D0A0C7151884B03A100170FAD0A0C717E0BFFD15E0BFFC171001703AE0BFFD17BE
:2002B8000001883A0005883ADF000017E037883AF800283ADEC00104DF000615DEFFF904FC
:2002BC00E13FFE15DF000604E0BFFF17E17FFF150005303AE0BFFA15E0FFFB17E0BFFB1520
:2002C0001884703A00BFFF84E0BFFB171001703A00C00044E0BFFC151884983AE0BFFA1758
:2002C4001007883A0084303A1884703AD0A0C717D0A0C717D0A0C715E0BFFC17100170FAF8
:2002C800E0BFFD17E0BFFD150005883A1001703AE037883A0001883ADEC00104DF000017FB
:2002CC00DEFFFC04F800283ADF000304DF000315E17FFF15E13FFE15E0BFFD15000530FA77
:2002D000E0BFFF1700C000441007883A1884983A1884703AE0BFFD1710803FCC1004C03A6C
:2002D400DF000017E037883AF800283ADEC00104DFC00A15DEFFF504DF000904DF000915C1
:2002D800E17FFD15E13FFC15E1FFFF15E1BFFE15E0BFF71500BFFA84E0BFF815E0BFFD1775
:2002DC0010800808E0BFF8170005303A1000271EE0FFFB17E0BFFB151884703A00BFFF84C8
:2002E000E0BFFB171001703A00800134E0BFFA15E0FFF817108B200410C5883A180690FA43
:2002E40010C00015E0FFFE17108B200400800134180690FAE0FFF8171080010410C5883AEB
:2002E80010C00015E0FFFF1710000526E0BFFE17100B883AE0BFF81700415500E13FFC17D9
:2002EC00E0BFF81700000406E13FFC17100B883AE0BFF71500415D80E0BFF915E0BFFA1704
:2002F0001001703AE0BFF917E037883AE0BFF717DF000017DFC00117F800283ADEC0020453
:2002F400DFC00615DEFFF904DF000504DF000515E17FFD15E13FFC15E1FFFF15E1BFFE152B
:2002F800E17FFE17E1BFFF1700419E00E13FFD17E0BFFB17E0BFFB150080013410001C1651
:2002FC00E0FFFB171089F50410C5883A18C00324E0BFFC1710C000170080013410C0001596
:20030000E0FFFB171089F50410C5883A18C0032410C000171080010410C00115E0BFFC17B0
:200304001089F5040080013418C00324E0FFFB171080020410C5883AE0BFFC1710C00017DC
:20030800E13FFB1710C002150001883A0041B340DFC00117E037883ADEC00204DF0000179B
:20030C00DEFFFB04F800283ADF000315DFC00415E13FFD15DF000304E1BFFF15E17FFE15AD
:200310000180004401C07FC401000134E17FFD1700417A002109F804000D883A01C07FC4A6
:2003140001000134E17FFE1700417A002109F5040180004401C07FC401000134E17FFF17CB
:2003180000417A002109FB04E037883A0001883ADF000017DFC00117F800283ADEC002049A
:20031C00DFC00115DEFFFE04D839883ADF00001510000326D0A00717103EE83AD0A00717A1
:20032000D0A0C30400000106DFC00117E037883ADEC00204DF000017DEFFFD04F800283A1D
:20032400DF000204DF000215E0BFFF17E13FFF1510D000341080021710C00215E0BFFF179C
:2003280000001D06E03FFE151089F5040080013418C00324E0FFFE1710C0001710C5883AA8
:20032C0010800017E0BFFF17008001341880111EE0FFFE171089F50410C5883A18C00324BD
:200330001080001710800204E0BFFE171000090E0080013410C003241887883A1089F504F6
:2003340018800226E0BFFF170000080600BFFCC410800044E0BFFE17D0A00617E0BFFE15E0
:20033800E0BFFE171007883A0005883A18BFDF2EDF000017E037883AF800283ADEC00104A1
:20033C00DFC00915DEFFF604DF000804DF000815E17FFE15E13FFD1500BFFFC4E1BFFF154B
:2003400000BFFB44E0BFF915E03FFB15E0BFFA15E13FFD17D1600404E0BFF8150041D600E5
:200344001000051EE0BFF8170041DF00E13FFD1700800044E0BFF815E0BFF817E0BFFB1597
:20034800E13FF81710002926E0BFF9150041EF801000030EE0BFF917E0BFFA15E0BFF9177D
:20034C00E0BFF917000023060080013410C003241885883A1089F504E0FFFE17E0BFFC1578
:2003500010BFFFC400900034E0BFFC171886703AE0BFFB1710C00215E13FFC171000051E3F
:20035400E0BFFA15004191C010001016E0BFFA1710800317E0BFF817E0BFF817100008261F
:20035800E1FFFF1710800317E17FFD17E1BFFE17103EE83AE13FFC170005883A000001064B
:20035C0000000206E0BFFA15E0BFFA1500BFFB441000090EE0BFFA170041B340E13FF917E4
:200360001007883A00418E000085C83AE0BFFA1700BFFFC418800015E0BFF91700000106B9
:20036400DFC00117E037883ADEC00204DF000017DEFFFE04F800283ADF000104DF0001153D
:20036800E0BFFF17E13FFF1510000D1E108000D01089F5040080013418C00324E0FFFF17B6
:20036C001080020410C5883A0080013410000015E0FFFF171089F50410C5883A18C003244D
:200370000001883A10000015DF000017E037883AF800283ADEC00104DF000515DEFFFA04E5
:20037400E13FFF15DF000504E0BFFC150005303A00BFFF84E0FFFC171001703A1884703AF9
:20037800E0BFFB15E0BFFC17E0BFFD15E0BFFF1710800017E0BFFD1718C00117E0FFFD1761
:20037C00E0BFFD1710C00115E0FFFD171080011710C0001518C00017E0FFFD17E0BFFD17B3
:20038000E0BFFD1710C0011510C00015E0FFFD17E0BFFE15E0BFFB171001703AE0BFFE171A
:20038400E037883A0001883ADEC00104DF000017DEFFFB04F800283ADF000315DFC004153F
:20038800D0A00917DF000304D0A0C917E0BFFD15D0A0C91510800044E0BFFD1700002E06D5
:20038C00E0BFFE151080001710800403E0BFFD171000042610803FCC1000021ED0A0C91759
:2003900010000405E0BFFD1710800217E0BFFD1718801D36D0E0C91710800403E0BFFD1760
:200394001000191E10803FCC10800317E0BFFD1718C00517E0FFFD17103EE83A1809883AD0
:20039800E0BFFF17E0BFFF15E13FFD171000031E00000D060041B98010C00217E0BFFD174F
:20039C001887883AE0BFFF1710C00215E0BFFD1710C00217E0BFFD171880032ED0A0C917DC
:2003A00000C00044E0BFFD17E0BFFE1710C00405E0FFFD17E0BFFD1518BFCF1ED0A0090414
:2003A4000001883A0001883ADFC00117E037883ADEC00204DF000017DEFFFF04F800283A4F
:2003A800D839883ADF0000150001883A000170FADF000017E037883AF800283ADEC0010474
:2003AC00DFC00515DEFFFA04DF000404DF000415E17FFF15E13FFE1510800017E0BFFF17BB
:2003B000E13FFE17E0BFFC15108000440040870000000D06E0BFFD1510800217E0BFFC178E
:2003B400180D883AE0FFFD171009883AE17FFE171000021E00420FC000000706E0BFFC17FF
:2003B80010800017E0BFFC17E0FFFC17E0BFFC1518BFF01EE0BFFF17E037883A0005883AF0
:2003BC00DF000017DFC00117F800283ADEC00204DFC00415DEFFFB04DF000304DF00031505
:2003C000D0A00217E13FFF1500003106E0BFFD1510800217E0BFFD17004087001009883A7A
:2003C400E0BFFD17E0BFFE15E0BFFE1710C002171885883A10BFFFC410803FCC10800003F8
:2003C80010BFE0041080201C1000031E10800BD810BFFFC4E0BFFE17E0BFFE17E0BFFE1546
:2003CC001885883AE0FFFF1710803FCC1080000310BFE0041080201C1000081E10800BE05F
:2003D000E0FFFF17E0BFFE17108000031885883A1080201C10803FCC10000A1E10BFE00420
:2003D40010800217E0BFFD17180D883AE0FFFE171009883AE17FFF171000021E00420FC040
:2003D80000000706E0BFFD1710800017E0BFFD17E0FFFD17E0BFFD1518BFCC1ED0A0020410
:2003DC00E037883A0005883ADF000017DFC00117F800283ADEC00204DF000315DEFFFC04E2
:2003E000E13FFF15DF000304E0BFFE1500BFFA0400001906E03FFD151089F50400800134DD
:2003E40018C00324E0FFFD171080001710C5883A0080013410000F1EE0FFFD171089F50452
:2003E80010C5883A18C0032410C00015E0FFFF17E0BFFD17D0E00617E0BFFD171880020EAA
:2003EC00E0BFFD17D0A0061500000606E0BFFE1510800044E0BFFD17E0BFFD17E0BFFD150A
:2003F000103FE41E10800810E037883AE0BFFE17DEC00104DF000017DEFFFB04F800283A98
:2003F400DF000404DF000415E17FFF15E13FFE1510840070E0BFFF17008400041000021EF2
:2003F800E0FFFE17E0BFFF151885883AE0BFFF17E0BFFE17E0BFFD1500000506E0BFFC150A
:2003FC001000603AE0BFFC1710800804E0BFFC17E0FFFC17E0BFFC1518BFF836E0BFFD17DD
:20040000108007CCE0BFFE17E0BFFC17100002260000203A1000603AE037883A0001883A3B
:20040400DEC00104DF000017DEFFFE04F800283ADF000104DF000115E0BFFF17E13FFF1544
:2004080010C0042810BFFE84100690BA18001A1E1088190400800134108000171885883A67
:20040C00000420A41000683A000420B4000420A4000420B4000420B4000420AC000420A46E
:20041000000420A4000420B4000420B4000420A4000420AC000420A4000420B4000420B444
:2004140000800044000420A40005883A000003060005883A00000106DF000017E037883ACF
:20041800F800283ADEC00104000F883A200B883A0009883A000D883ADEFFFE04004212C17B
:20041C00DC000015000B883A2021883ADFC001158009883A00422840218D883A00425C80C7
:20042000208000032180082610C0022628C00003F800283A10C5C83A294000442100004424
:200424000005883A003FF70600800134F800283A10C00017108A5504DC000015DEFFF90401
:20042800DD4005151C000C17DCC00315DD000415DC400115DC800215202B883ADFC0061528
:20042C003027883A2823883A1029883A3825883A1C000D048000021E808001171C000C154E
:200430001880110E00C007C4108000040080003400BFFFC41000021E010023040000310611
:200434001021883A0000000010000115103FFA2610C00C17A080001714000C1580C000156C
:20043800A8001D2680002215A8001B26000006061000091E80802217108000040080003455
:20043C0001004204103FEC26103FE9260000000010004115100040158140011780802215BF
:200440002947883A0100004410C7883A18C7883A2148983A1CC00015290AB03A11404017FA
:200444001C80201511404015A8C0031E00C000841908B03A10C041178080011711004115A2
:200448001080008410C000441085883A1085883A80A1883A80C001150005883A84400015E5
:20044C00DD400517DFC00617DCC00317DD000417DC400117DC800217DEC00704DC000017A8
:20045000DEFFF504F800283A05000134DD000515DFC00A15DC800315DDC00815DF00091542
:20045400DD400615DD800715DC400215DCC00415D9000015DC000115A50A55042825883AF8
:200458008CC00C17A4400017980045268C400C04009000349C0001179D40221710BFFFC41B
:20045C0080A1883A85BFFFC48421883A8421883A84000204AC2F883AB00027169C21883A35
:20046000A800041E90000726BDFFFF04B5BFFFC4003FF906843FFF04913FFA1EB900201723
:200464008200001799000117B100021E213FFFC4000001069D800115403FF22680000015D4
:20046800A80005269F0001171592983A00800044494A703AA9404017403EE83A2800021E48
:20046C00A9004117000009062000041E4908703AD9000017B940001700000206403EE83A7B
:20047000403EE83AB9000017E13FCC1E99000117993FDC268900001700800034003FC90605
:2004740010000F26108000049900001799400117200008262800091EA800022689000015E3
:2004780000000000A809883A000000009809883A003FBD068CC000172027883A9823883AA3
:20047C00DFC00A17003FBA06DDC00817DF000917DD400617DD800717DCC00417DD00051781
:20048000DC400217DC800317DEC00B04DC00011720001B16F800283A28001616000F883A40
:2004840029001A2E200D883A00C000440080080410000D260000010610BFFFC4294B883A56
:20048800293FFB3618C7883A180007260005883A314002360005883A10C4B03A314DC83A60
:20048C00280AD07A1806D07A38000126183FFA1EF800283A0085C83A39C0005C014BC83A1A
:200490000109C83A003FE706003FE30601C00044003FEE0600C00044000F883A2000171692
:20049400280012162005883A018008042900162E0000010600C00044294B883A30000A2676
:2004980018C7883A31BFFFC418000526293FFB36114001361806D07A280AD07A1145C83A50
:20049C0038000126183FFB1EF800283A0085C83A003FEC06014BC83A01C000440109C83A00
:2004A00000C00044003FE706200D883A003FF106280014162900152E00C000440080080499
:2004A40010000E2600000206294B883A2800051618C7883A10BFFFC418000826293FFA3662
:2004A800314002360005883A10C4B03A314DC83A280AD07A1806D07AF800283A183FFA1ED9
:2004AC00F800283A0005883A003FF40600C000442900122E2005883A0180080428001116A6
:2004B0000000020600C000442800051630000C2631BFFFC4294B883A293FFA3618C7883A59
:2004B4001806D07A180006261145C83A11400136183FFB1E280AD07AF800283AF800283AFC
:2004B800003FF70600C00044DF000215DEFFFD04E13FFF15DF000204E0BFFF170001883A7F
:2004BC00E0BFFE17E0BFFE15002AF07010000226002AF0B00000010674696E49003FFF064F
:2004C000000000005049562063616220776F68730D646E756F72676B62616E650000000069
:2004C400726579616C20656C78756E696C2831206220656D61726620000D29726566667566
:2004C80079616C20776F68730000000D3120726579616C20776F68730000000D322072655B
:2004CC0079616C20776F68730000000D332072657665642F0000000A61755F6761746A2F30
:2004D0007665642F0000747261755F6761746A2F7665642F000074720000006C6C756E2F70
:2004D400000000000000000000000000000000000000000000000000000000000000000008
:2004D800000000000000000000000000000000000000000000000000000000000000000004
:2004DC00000000000000000000000000000000000000000000000000000000000000000000
:2004E0000000000000000000000000000000000000000000000000000000000000000000FC
:2004E4000000000000000000000000000000000000000000000000000000000000000000F8
:2004E8000000000000000000000000000000000000000000000000000000000000000000F4
:2004EC000000000000000000000000000000000000000000000000000000000000000000F0
:2004F0000000000000000000000000000000000000000000000000000000000000000000EC
:2004F4000000000000000000000000000000000000000000000000000000000000000000E8
:2004F8000000000000000000000000000000000000000000000000000000000000000000E4
:2004FC000000000000000000000000000000000000000000000000000000000000000000E0
:200500000000000000000000000000000000000000000000000000000000000000000000DB
:200504000000000000000000000000000000000000000000000000000000000000000000D7
:200508000000000000000000000000000000000000000000000000000000000000000000D3
:20050C000000000000000000000000000000000000000000000000000000000000000000CF
:200510000000000000000000000000000000000000000000000000000000000000000000CB
:200514000000000000000000000000000000000000000000000000000000000000000000C7
:200518000000000000000000000000000000000000000000000000000000000000000000C3
:20051C000000000000000000000000000000000000000000000000000000000000000000BF
:200520000000000000000000000000000000000000000000000000000000000000000000BB
:200524000000000000000000000000000000000000000000000000000000000000000000B7
:200528000000000000000000000000000000000000000000000000000000000000000000B3
:20052C000000000000000000000000000000000000000000000000000000000000000000AF
:200530000004276000000000000427700004276800000000000000000000000000000000F2
:200534000000000000000000000000000000000000000000000000000000000000000000A7
:200538000000000000000000000000000000000000000000000000000000000000000000A3
:20053C0000000000000000000000000000000000000000000000000000000000000000009F
:2005400000000000000000000000000000000000000000000000000000000000000000009B
:20054400000000000000000000000000000000000000000000000000000000000000000097
:200548000000000000000004000000000001000A000000000002000A000000000000000078
:20054C000000000000000000000000000004268400040D20000000000000000000040D801F
:200550000000000000000000000429640002000000042694000429640000000000000000A9
:2005540000041300000000000000000000000000000427AC00000000000000000000000099
:2005580000000000000427AC000427AC0000000000000000000000000000000000000000D5
:20055C0000000000000000000000000000000000000000000000000000000000000000007F
:2005600000000000000000000000000000000000000000000000000000000000000000007B
:20056400000000000000000000000000000000000000000000000000000000000000000077
:20056800000000000000000000000000000000000000000000000000000000000000000073
:20056C0000000000000000000000000000000000000000000000000000000000000000006F
:2005700000000000000000000000000000000000000000000000000000000000000000006B
:20057400000000000000000000000000000000000000000000000000000000000000000067
:20057800000000000000000000000000000000000000000000000000000000000000000063
:20057C0000000000000000000000000000000000000000000000000000000000000000005F
:2005800000000000000000000000000000000000000000000000000000000000000000005B
:2005840000000000000000000000000000000000000426A0000000000004295C000426A03A
:20058800000427AC0004295CFFFFFFFF000427ACFFFFFFFF000000000004297800042978DA
:20058C0000000000000000000000000000000000000000000000000000000000000000004F
:2005900000000000000000000000000000000000000000000000000000000000000000004B
:20059400000000000000000000000000000000000000000000000000000000000000000047
:20059800000000000000000000000000000000000000000000000000000000000000000043
:00000001FF
